{
  "contractName": "AssetLedger",
  "abi": [
    {
      "inputs": [],
      "stateMutability": "nonpayable",
      "type": "constructor"
    },
    {
      "anonymous": false,
      "inputs": [
        {
          "indexed": true,
          "internalType": "bytes32",
          "name": "baseId",
          "type": "bytes32"
        },
        {
          "indexed": false,
          "internalType": "address",
          "name": "admin",
          "type": "address"
        }
      ],
      "name": "BaseAdminRegistered",
      "type": "event"
    },
    {
      "anonymous": false,
      "inputs": [
        {
          "indexed": true,
          "internalType": "bytes32",
          "name": "baseId",
          "type": "bytes32"
        },
        {
          "indexed": false,
          "internalType": "address",
          "name": "admin",
          "type": "address"
        }
      ],
      "name": "BaseAdminRevoked",
      "type": "event"
    },
    {
      "anonymous": false,
      "inputs": [
        {
          "indexed": true,
          "internalType": "uint256",
          "name": "entryId",
          "type": "uint256"
        },
        {
          "indexed": false,
          "internalType": "string",
          "name": "entryType",
          "type": "string"
        },
        {
          "indexed": false,
          "internalType": "string",
          "name": "reason",
          "type": "string"
        }
      ],
      "name": "EntryRejected",
      "type": "event"
    },
    {
      "anonymous": false,
      "inputs": [
        {
          "indexed": true,
          "internalType": "uint256",
          "name": "entryId",
          "type": "uint256"
        },
        {
          "indexed": false,
          "internalType": "string",
          "name": "entryType",
          "type": "string"
        }
      ],
      "name": "EntryValidated",
      "type": "event"
    },
    {
      "anonymous": false,
      "inputs": [
        {
          "indexed": true,
          "internalType": "uint256",
          "name": "id",
          "type": "uint256"
        },
        {
          "indexed": true,
          "internalType": "bytes32",
          "name": "baseId",
          "type": "bytes32"
        },
        {
          "indexed": false,
          "internalType": "string",
          "name": "vehicleNumber",
          "type": "string"
        },
        {
          "indexed": false,
          "internalType": "address",
          "name": "recordedBy",
          "type": "address"
        },
        {
          "indexed": false,
          "internalType": "uint256",
          "name": "timestamp",
          "type": "uint256"
        }
      ],
      "name": "MaintenanceRecordAdded",
      "type": "event"
    },
    {
      "anonymous": false,
      "inputs": [
        {
          "indexed": true,
          "internalType": "uint256",
          "name": "id",
          "type": "uint256"
        },
        {
          "indexed": true,
          "internalType": "bytes32",
          "name": "baseId",
          "type": "bytes32"
        },
        {
          "indexed": false,
          "internalType": "string",
          "name": "partCode",
          "type": "string"
        },
        {
          "indexed": false,
          "internalType": "enum AssetLedger.MovementType",
          "name": "movementType",
          "type": "uint8"
        },
        {
          "indexed": false,
          "internalType": "int256",
          "name": "quantityChange",
          "type": "int256"
        },
        {
          "indexed": false,
          "internalType": "address",
          "name": "recordedBy",
          "type": "address"
        },
        {
          "indexed": false,
          "internalType": "uint256",
          "name": "timestamp",
          "type": "uint256"
        }
      ],
      "name": "SparePartMovementRecorded",
      "type": "event"
    },
    {
      "anonymous": false,
      "inputs": [
        {
          "indexed": true,
          "internalType": "uint256",
          "name": "id",
          "type": "uint256"
        },
        {
          "indexed": true,
          "internalType": "bytes32",
          "name": "baseId",
          "type": "bytes32"
        },
        {
          "indexed": false,
          "internalType": "string",
          "name": "vehicleNumber",
          "type": "string"
        },
        {
          "indexed": false,
          "internalType": "enum AssetLedger.MovementType",
          "name": "movementType",
          "type": "uint8"
        },
        {
          "indexed": false,
          "internalType": "int256",
          "name": "quantityChange",
          "type": "int256"
        },
        {
          "indexed": false,
          "internalType": "address",
          "name": "recordedBy",
          "type": "address"
        },
        {
          "indexed": false,
          "internalType": "uint256",
          "name": "timestamp",
          "type": "uint256"
        }
      ],
      "name": "VehicleMovementRecorded",
      "type": "event"
    },
    {
      "inputs": [
        {
          "internalType": "address",
          "name": "",
          "type": "address"
        }
      ],
      "name": "adminToBase",
      "outputs": [
        {
          "internalType": "bytes32",
          "name": "",
          "type": "bytes32"
        }
      ],
      "stateMutability": "view",
      "type": "function",
      "constant": true
    },
    {
      "inputs": [
        {
          "internalType": "bytes32",
          "name": "",
          "type": "bytes32"
        }
      ],
      "name": "baseAdmins",
      "outputs": [
        {
          "internalType": "address",
          "name": "",
          "type": "address"
        }
      ],
      "stateMutability": "view",
      "type": "function",
      "constant": true
    },
    {
      "inputs": [
        {
          "internalType": "address",
          "name": "",
          "type": "address"
        }
      ],
      "name": "isAuthorisedAdmin",
      "outputs": [
        {
          "internalType": "bool",
          "name": "",
          "type": "bool"
        }
      ],
      "stateMutability": "view",
      "type": "function",
      "constant": true
    },
    {
      "inputs": [],
      "name": "maintenanceRecordCount",
      "outputs": [
        {
          "internalType": "uint256",
          "name": "",
          "type": "uint256"
        }
      ],
      "stateMutability": "view",
      "type": "function",
      "constant": true
    },
    {
      "inputs": [
        {
          "internalType": "uint256",
          "name": "",
          "type": "uint256"
        }
      ],
      "name": "maintenanceRecords",
      "outputs": [
        {
          "internalType": "uint256",
          "name": "id",
          "type": "uint256"
        },
        {
          "internalType": "bytes32",
          "name": "baseId",
          "type": "bytes32"
        },
        {
          "internalType": "string",
          "name": "vehicleNumber",
          "type": "string"
        },
        {
          "internalType": "string",
          "name": "description",
          "type": "string"
        },
        {
          "internalType": "uint256",
          "name": "costEstimate",
          "type": "uint256"
        },
        {
          "internalType": "address",
          "name": "recordedBy",
          "type": "address"
        },
        {
          "internalType": "uint256",
          "name": "timestamp",
          "type": "uint256"
        },
        {
          "internalType": "enum AssetLedger.RecordStatus",
          "name": "status",
          "type": "uint8"
        }
      ],
      "stateMutability": "view",
      "type": "function",
      "constant": true
    },
    {
      "inputs": [],
      "name": "sparePartMovementCount",
      "outputs": [
        {
          "internalType": "uint256",
          "name": "",
          "type": "uint256"
        }
      ],
      "stateMutability": "view",
      "type": "function",
      "constant": true
    },
    {
      "inputs": [
        {
          "internalType": "uint256",
          "name": "",
          "type": "uint256"
        }
      ],
      "name": "sparePartMovements",
      "outputs": [
        {
          "internalType": "uint256",
          "name": "id",
          "type": "uint256"
        },
        {
          "internalType": "bytes32",
          "name": "baseId",
          "type": "bytes32"
        },
        {
          "internalType": "string",
          "name": "partCode",
          "type": "string"
        },
        {
          "internalType": "string",
          "name": "partName",
          "type": "string"
        },
        {
          "internalType": "enum AssetLedger.MovementType",
          "name": "movementType",
          "type": "uint8"
        },
        {
          "internalType": "int256",
          "name": "quantityChange",
          "type": "int256"
        },
        {
          "internalType": "string",
          "name": "reason",
          "type": "string"
        },
        {
          "internalType": "address",
          "name": "recordedBy",
          "type": "address"
        },
        {
          "internalType": "uint256",
          "name": "timestamp",
          "type": "uint256"
        },
        {
          "internalType": "enum AssetLedger.RecordStatus",
          "name": "status",
          "type": "uint8"
        }
      ],
      "stateMutability": "view",
      "type": "function",
      "constant": true
    },
    {
      "inputs": [],
      "name": "superAdmin",
      "outputs": [
        {
          "internalType": "address",
          "name": "",
          "type": "address"
        }
      ],
      "stateMutability": "view",
      "type": "function",
      "constant": true
    },
    {
      "inputs": [],
      "name": "vehicleMovementCount",
      "outputs": [
        {
          "internalType": "uint256",
          "name": "",
          "type": "uint256"
        }
      ],
      "stateMutability": "view",
      "type": "function",
      "constant": true
    },
    {
      "inputs": [
        {
          "internalType": "uint256",
          "name": "",
          "type": "uint256"
        }
      ],
      "name": "vehicleMovements",
      "outputs": [
        {
          "internalType": "uint256",
          "name": "id",
          "type": "uint256"
        },
        {
          "internalType": "bytes32",
          "name": "baseId",
          "type": "bytes32"
        },
        {
          "internalType": "string",
          "name": "vehicleNumber",
          "type": "string"
        },
        {
          "internalType": "enum AssetLedger.MovementType",
          "name": "movementType",
          "type": "uint8"
        },
        {
          "internalType": "int256",
          "name": "quantityChange",
          "type": "int256"
        },
        {
          "internalType": "string",
          "name": "reason",
          "type": "string"
        },
        {
          "internalType": "address",
          "name": "recordedBy",
          "type": "address"
        },
        {
          "internalType": "uint256",
          "name": "timestamp",
          "type": "uint256"
        },
        {
          "internalType": "enum AssetLedger.RecordStatus",
          "name": "status",
          "type": "uint8"
        }
      ],
      "stateMutability": "view",
      "type": "function",
      "constant": true
    },
    {
      "inputs": [
        {
          "internalType": "string",
          "name": "_baseId",
          "type": "string"
        },
        {
          "internalType": "address",
          "name": "_admin",
          "type": "address"
        }
      ],
      "name": "registerBaseAdmin",
      "outputs": [],
      "stateMutability": "nonpayable",
      "type": "function"
    },
    {
      "inputs": [
        {
          "internalType": "address",
          "name": "_admin",
          "type": "address"
        }
      ],
      "name": "revokeBaseAdmin",
      "outputs": [],
      "stateMutability": "nonpayable",
      "type": "function"
    },
    {
      "inputs": [
        {
          "internalType": "string",
          "name": "_baseId",
          "type": "string"
        },
        {
          "internalType": "string",
          "name": "_vehicleNumber",
          "type": "string"
        },
        {
          "internalType": "enum AssetLedger.MovementType",
          "name": "_movementType",
          "type": "uint8"
        },
        {
          "internalType": "int256",
          "name": "_quantityChange",
          "type": "int256"
        },
        {
          "internalType": "string",
          "name": "_reason",
          "type": "string"
        }
      ],
      "name": "addVehicleMovement",
      "outputs": [
        {
          "internalType": "uint256",
          "name": "movementId",
          "type": "uint256"
        }
      ],
      "stateMutability": "nonpayable",
      "type": "function"
    },
    {
      "inputs": [
        {
          "internalType": "string",
          "name": "_baseId",
          "type": "string"
        },
        {
          "internalType": "string",
          "name": "_partCode",
          "type": "string"
        },
        {
          "internalType": "string",
          "name": "_partName",
          "type": "string"
        },
        {
          "internalType": "enum AssetLedger.MovementType",
          "name": "_movementType",
          "type": "uint8"
        },
        {
          "internalType": "int256",
          "name": "_quantityChange",
          "type": "int256"
        },
        {
          "internalType": "string",
          "name": "_reason",
          "type": "string"
        }
      ],
      "name": "addSparePartMovement",
      "outputs": [
        {
          "internalType": "uint256",
          "name": "movementId",
          "type": "uint256"
        }
      ],
      "stateMutability": "nonpayable",
      "type": "function"
    },
    {
      "inputs": [
        {
          "internalType": "string",
          "name": "_baseId",
          "type": "string"
        },
        {
          "internalType": "string",
          "name": "_vehicleNumber",
          "type": "string"
        },
        {
          "internalType": "string",
          "name": "_description",
          "type": "string"
        },
        {
          "internalType": "string[]",
          "name": "_partsUsed",
          "type": "string[]"
        },
        {
          "internalType": "uint256",
          "name": "_costEstimate",
          "type": "uint256"
        }
      ],
      "name": "addMaintenanceRecord",
      "outputs": [
        {
          "internalType": "uint256",
          "name": "recordId",
          "type": "uint256"
        }
      ],
      "stateMutability": "nonpayable",
      "type": "function"
    },
    {
      "inputs": [
        {
          "internalType": "string",
          "name": "_vehicleNumber",
          "type": "string"
        }
      ],
      "name": "getVehicleHistory",
      "outputs": [
        {
          "internalType": "uint256[]",
          "name": "",
          "type": "uint256[]"
        }
      ],
      "stateMutability": "view",
      "type": "function",
      "constant": true
    },
    {
      "inputs": [
        {
          "internalType": "string",
          "name": "_vehicleNumber",
          "type": "string"
        }
      ],
      "name": "getVehicleMaintenanceHistory",
      "outputs": [
        {
          "internalType": "uint256[]",
          "name": "",
          "type": "uint256[]"
        }
      ],
      "stateMutability": "view",
      "type": "function",
      "constant": true
    },
    {
      "inputs": [
        {
          "internalType": "string",
          "name": "_partCode",
          "type": "string"
        }
      ],
      "name": "getSparePartHistory",
      "outputs": [
        {
          "internalType": "uint256[]",
          "name": "",
          "type": "uint256[]"
        }
      ],
      "stateMutability": "view",
      "type": "function",
      "constant": true
    },
    {
      "inputs": [
        {
          "internalType": "string",
          "name": "_baseId",
          "type": "string"
        }
      ],
      "name": "getBaseVehicleMovements",
      "outputs": [
        {
          "internalType": "uint256[]",
          "name": "",
          "type": "uint256[]"
        }
      ],
      "stateMutability": "view",
      "type": "function",
      "constant": true
    },
    {
      "inputs": [
        {
          "internalType": "string",
          "name": "_baseId",
          "type": "string"
        }
      ],
      "name": "getBaseSparePartMovements",
      "outputs": [
        {
          "internalType": "uint256[]",
          "name": "",
          "type": "uint256[]"
        }
      ],
      "stateMutability": "view",
      "type": "function",
      "constant": true
    },
    {
      "inputs": [
        {
          "internalType": "string",
          "name": "_baseId",
          "type": "string"
        }
      ],
      "name": "getBaseMaintenanceRecords",
      "outputs": [
        {
          "internalType": "uint256[]",
          "name": "",
          "type": "uint256[]"
        }
      ],
      "stateMutability": "view",
      "type": "function",
      "constant": true
    },
    {
      "inputs": [
        {
          "internalType": "uint256",
          "name": "_id",
          "type": "uint256"
        }
      ],
      "name": "getVehicleMovementDetails",
      "outputs": [
        {
          "internalType": "bytes32",
          "name": "baseId",
          "type": "bytes32"
        },
        {
          "internalType": "string",
          "name": "vehicleNumber",
          "type": "string"
        },
        {
          "internalType": "enum AssetLedger.MovementType",
          "name": "movementType",
          "type": "uint8"
        },
        {
          "internalType": "int256",
          "name": "quantityChange",
          "type": "int256"
        },
        {
          "internalType": "string",
          "name": "reason",
          "type": "string"
        },
        {
          "internalType": "address",
          "name": "recordedBy",
          "type": "address"
        },
        {
          "internalType": "uint256",
          "name": "timestamp",
          "type": "uint256"
        },
        {
          "internalType": "enum AssetLedger.RecordStatus",
          "name": "status",
          "type": "uint8"
        }
      ],
      "stateMutability": "view",
      "type": "function",
      "constant": true
    },
    {
      "inputs": [
        {
          "internalType": "uint256",
          "name": "_id",
          "type": "uint256"
        }
      ],
      "name": "getSparePartMovementDetails",
      "outputs": [
        {
          "internalType": "bytes32",
          "name": "baseId",
          "type": "bytes32"
        },
        {
          "internalType": "string",
          "name": "partCode",
          "type": "string"
        },
        {
          "internalType": "string",
          "name": "partName",
          "type": "string"
        },
        {
          "internalType": "enum AssetLedger.MovementType",
          "name": "movementType",
          "type": "uint8"
        },
        {
          "internalType": "int256",
          "name": "quantityChange",
          "type": "int256"
        },
        {
          "internalType": "string",
          "name": "reason",
          "type": "string"
        },
        {
          "internalType": "address",
          "name": "recordedBy",
          "type": "address"
        },
        {
          "internalType": "uint256",
          "name": "timestamp",
          "type": "uint256"
        },
        {
          "internalType": "enum AssetLedger.RecordStatus",
          "name": "status",
          "type": "uint8"
        }
      ],
      "stateMutability": "view",
      "type": "function",
      "constant": true
    },
    {
      "inputs": [
        {
          "internalType": "uint256",
          "name": "_id",
          "type": "uint256"
        }
      ],
      "name": "getMaintenanceRecordDetails",
      "outputs": [
        {
          "internalType": "bytes32",
          "name": "baseId",
          "type": "bytes32"
        },
        {
          "internalType": "string",
          "name": "vehicleNumber",
          "type": "string"
        },
        {
          "internalType": "string",
          "name": "description",
          "type": "string"
        },
        {
          "internalType": "string[]",
          "name": "partsUsed",
          "type": "string[]"
        },
        {
          "internalType": "uint256",
          "name": "costEstimate",
          "type": "uint256"
        },
        {
          "internalType": "address",
          "name": "recordedBy",
          "type": "address"
        },
        {
          "internalType": "uint256",
          "name": "timestamp",
          "type": "uint256"
        },
        {
          "internalType": "enum AssetLedger.RecordStatus",
          "name": "status",
          "type": "uint8"
        }
      ],
      "stateMutability": "view",
      "type": "function",
      "constant": true
    },
    {
      "inputs": [],
      "name": "getTotalEntries",
      "outputs": [
        {
          "internalType": "uint256",
          "name": "",
          "type": "uint256"
        }
      ],
      "stateMutability": "view",
      "type": "function",
      "constant": true
    },
    {
      "inputs": [
        {
          "internalType": "address",
          "name": "_addr",
          "type": "address"
        }
      ],
      "name": "isSuperAdmin",
      "outputs": [
        {
          "internalType": "bool",
          "name": "",
          "type": "bool"
        }
      ],
      "stateMutability": "view",
      "type": "function",
      "constant": true
    }
  ],
  "bytecode": "0x608060405234801561001057600080fd5b50600080546001600160a01b03191633179055612bcb806100326000396000f3fe608060405234801561001057600080fd5b506004361061018e5760003560e01c8063723674e7116100de578063e1b3bbfa11610097578063ef071fdc11610071578063ef071fdc14610400578063f3e31a5814610427578063f4c54d641461043a578063fdaac9331461044d57600080fd5b8063e1b3bbfa146103b7578063e806909e146103ca578063ece109db146103dd57600080fd5b8063723674e7146102ee5780637c3692141461030e5780638f8d48071461032157806397457b101461034a578063d5078fc21461035d578063df7f453b1461038557600080fd5b80632a9959b71161014b578063371fd1db11610125578063371fd1db146102635780633df504921461028b5780634326fb4e146102b2578063491c6fcf146102c557600080fd5b80632a9959b71461022a5780632b1c46561461025157806334f927931461025a57600080fd5b806312d491c914610193578063191e9412146101ae5780631e18d5af146101b75780632518e892146101cc5780632891f691146101df57806329575f6a146101ff575b600080fd5b61019b610460565b6040519081526020015b60405180910390f35b61019b60045481565b6101ca6101c5366004612038565b610484565b005b6101ca6101da3660046120a3565b61055b565b6101f26101ed3660046120f7565b610657565b6040516101a59190612139565b600054610212906001600160a01b031681565b6040516001600160a01b0390911681526020016101a5565b61023d61023836600461217d565b6106ec565b6040516101a5989796959493929190612220565b61019b60055481565b61019b60065481565b61027661027136600461217d565b61084b565b6040516101a599989796959493929190612291565b61029e61029936600461217d565b6109b9565b6040516101a5989796959493929190612312565b6101f26102c03660046120f7565b610c29565b6102d86102d336600461217d565b610c42565b6040516101a59a999897969594939291906123d6565b61019b6102fc366004612038565b60036020526000908152604090205481565b61019b61031c36600461246d565b610e3e565b61021261032f36600461217d565b6001602052600090815260409020546001600160a01b031681565b6101f26103583660046120f7565b611301565b61037061036b36600461217d565b61131a565b6040516101a599989796959493929190612567565b6103a7610393366004612038565b6000546001600160a01b0391821691161490565b60405190151581526020016101a5565b61019b6103c53660046125a4565b611543565b6101f26103d83660046120f7565b6119bb565b6103a76103eb366004612038565b60026020526000908152604090205460ff1681565b61041361040e36600461217d565b6119d4565b6040516101a5989796959493929190612688565b6101f26104353660046120f7565b611b6c565b61019b6104483660046126ee565b611b85565b6101f261045b3660046120f7565b611f5d565b600060065460055460045461047591906127bb565b61047f91906127bb565b905090565b6000546001600160a01b031633146104d65760405162461bcd60e51b815260206004820152601060248201526f27b7363c9029bab832b91020b236b4b760811b60448201526064015b60405180910390fd5b6001600160a01b0381166000818152600360208181526040808420805460028452828620805460ff191690558086526001845282862080546001600160a01b03191690558686529383529390935591519283529182917fd332c828b8b214deabc522fdac77a4380424dbf5d5d2715753098477bcdaee3a910160405180910390a25050565b6000546001600160a01b031633146105a85760405162461bcd60e51b815260206004820152601060248201526f27b7363c9029bab832b91020b236b4b760811b60448201526064016104cd565b600083836040516020016105bd9291906127ce565b60408051808303601f1901815282825280516020918201206000818152600180845284822080546001600160a01b0319166001600160a01b038a1690811790915580835260028552858320805460ff19169092179091556003845293902081905591835290925082917f190a43c04eba8113f6aaa21ee6be4fca7a30fd9bd675218c8a093230d0ccafce910160405180910390a250505050565b6060600c600084846040516020016106709291906127ce565b6040516020818303038152906040528051906020012081526020019081526020016000208054806020026020016040519081016040528092919081815260200182805480156106de57602002820191906000526020600020905b8154815260200190600101908083116106ca575b505050505090505b92915050565b60096020526000908152604090208054600182015460028301805492939192610714906127de565b80601f0160208091040260200160405190810160405280929190818152602001828054610740906127de565b801561078d5780601f106107625761010080835404028352916020019161078d565b820191906000526020600020905b81548152906001019060200180831161077057829003601f168201915b5050505050908060030180546107a2906127de565b80601f01602080910402602001604051908101604052809291908181526020018280546107ce906127de565b801561081b5780601f106107f05761010080835404028352916020019161081b565b820191906000526020600020905b8154815290600101906020018083116107fe57829003601f168201915b50505050600583015460068401546007850154600890950154939491936001600160a01b03909116925060ff1688565b60076020526000908152604090208054600182015460028301805492939192610873906127de565b80601f016020809104026020016040519081016040528092919081815260200182805461089f906127de565b80156108ec5780601f106108c1576101008083540402835291602001916108ec565b820191906000526020600020905b8154815290600101906020018083116108cf57829003601f168201915b5050505060038301546004840154600585018054949560ff9093169491935090610915906127de565b80601f0160208091040260200160405190810160405280929190818152602001828054610941906127de565b801561098e5780601f106109635761010080835404028352916020019161098e565b820191906000526020600020905b81548152906001019060200180831161097157829003601f168201915b505050506006830154600784015460089094015492936001600160a01b039091169290915060ff1689565b600060608060606000806000806000600960008b81526020019081526020016000209050806001015481600201826003018360040184600501548560060160009054906101000a90046001600160a01b031686600701548760080160009054906101000a900460ff16868054610a2e906127de565b80601f0160208091040260200160405190810160405280929190818152602001828054610a5a906127de565b8015610aa75780601f10610a7c57610100808354040283529160200191610aa7565b820191906000526020600020905b815481529060010190602001808311610a8a57829003601f168201915b50505050509650858054610aba906127de565b80601f0160208091040260200160405190810160405280929190818152602001828054610ae6906127de565b8015610b335780601f10610b0857610100808354040283529160200191610b33565b820191906000526020600020905b815481529060010190602001808311610b1657829003601f168201915b5050505050955084805480602002602001604051908101604052809291908181526020016000905b82821015610c07578382906000526020600020018054610b7a906127de565b80601f0160208091040260200160405190810160405280929190818152602001828054610ba6906127de565b8015610bf35780601f10610bc857610100808354040283529160200191610bf3565b820191906000526020600020905b815481529060010190602001808311610bd657829003601f168201915b505050505081526020019060010190610b5b565b5050505094509850985098509850985098509850985050919395975091939597565b6060600a600084846040516020016106709291906127ce565b60086020526000908152604090208054600182015460028301805492939192610c6a906127de565b80601f0160208091040260200160405190810160405280929190818152602001828054610c96906127de565b8015610ce35780601f10610cb857610100808354040283529160200191610ce3565b820191906000526020600020905b815481529060010190602001808311610cc657829003601f168201915b505050505090806003018054610cf8906127de565b80601f0160208091040260200160405190810160405280929190818152602001828054610d24906127de565b8015610d715780601f10610d4657610100808354040283529160200191610d71565b820191906000526020600020905b815481529060010190602001808311610d5457829003601f168201915b5050505060048301546005840154600685018054949560ff9093169491935090610d9a906127de565b80601f0160208091040260200160405190810160405280929190818152602001828054610dc6906127de565b8015610e135780601f10610de857610100808354040283529160200191610e13565b820191906000526020600020905b815481529060010190602001808311610df657829003601f168201915b505050506007830154600884015460099094015492936001600160a01b039091169290915060ff168a565b60008989604051602001610e539291906127ce565b60408051601f1981840301815291905280516020909101206000546001600160a01b031633036110e75787610e9a5760405162461bcd60e51b81526004016104cd90612818565b85610ede5760405162461bcd60e51b815260206004820152601460248201527311195cd8dc9a5c1d1a5bdb881c995c5d5a5c995960621b60448201526064016104cd565b60068054906000610eee8361284f565b919050555060065491506000610f048c8c611f76565b60008481526009602052604090208481556001810182905590915060028101610f2e8b8d836128cd565b5060038101610f3e898b836128cd565b50600581018590556006810180546001600160a01b0319163317905542600782015560088101805460ff1916600117905560005b86811015610fd55781600401888883818110610f9057610f9061298e565b9050602002810190610fa291906129a4565b82546001810184556000938452602090932090920191610fc291836128cd565b5080610fcd8161284f565b915050610f72565b50600b60008c8c604051602001610fed9291906127ce565b60408051601f198184030181529181528151602092830120835282820193909352908201600090812080546001818101835591835283832001889055858252600f83528382208054918201815582529190200185905551829085907faf57f4eac1e01747af6d3c12c47b469335f291a398d97f0a2091290a8d5b3f619061107b908f908f9033904290612a14565b60405180910390a3837f56a5c42cba58dabe3d616c8d61192acfe86ff6d095c50f0bac0e9cbff4cfbb7a6040516110d89060208082526012908201527113505253951153905390d157d49150d3d49160721b604082015260600190565b60405180910390a250506112f3565b3360009081526002602052604090205460ff16156112855733600090815260036020526040902054811461112d5760405162461bcd60e51b81526004016104cd90612a44565b8761114a5760405162461bcd60e51b81526004016104cd90612818565b8561118e5760405162461bcd60e51b815260206004820152601460248201527311195cd8dc9a5c1d1a5bdb881c995c5d5a5c995960621b60448201526064016104cd565b6006805490600061119e8361284f565b9190505550600654915060006111b48c8c611f76565b600084815260096020526040902084815560018101829055909150600281016111de8b8d836128cd565b50600381016111ee898b836128cd565b50600581018590556006810180546001600160a01b0319163317905542600782015560088101805460ff1916600117905560005b86811015610fd557816004018888838181106112405761124061298e565b905060200281019061125291906129a4565b8254600181018455600093845260209093209092019161127291836128cd565b508061127d8161284f565b915050611222565b60405162461bcd60e51b815260206004820152603d60248201527f4e6f7420617574686f7269736564202d206d757374206265205375706572204160448201527f646d696e206f72207265676973746572656420426173652041646d696e00000060648201526084016104cd565b509998505050505050505050565b6060600d600084846040516020016106709291906127ce565b60008181526008602081905260408220600181015460048201546005830154600784015494840154600985015460028601805460609889988b9889988b988a988998899895979496600389019560ff9586169560068b01946001600160a01b03909316931690889061138b906127de565b80601f01602080910402602001604051908101604052809291908181526020018280546113b7906127de565b80156114045780601f106113d957610100808354040283529160200191611404565b820191906000526020600020905b8154815290600101906020018083116113e757829003601f168201915b50505050509750868054611417906127de565b80601f0160208091040260200160405190810160405280929190818152602001828054611443906127de565b80156114905780601f1061146557610100808354040283529160200191611490565b820191906000526020600020905b81548152906001019060200180831161147357829003601f168201915b505050505096508380546114a3906127de565b80601f01602080910402602001604051908101604052809291908181526020018280546114cf906127de565b801561151c5780601f106114f15761010080835404028352916020019161151c565b820191906000526020600020905b8154815290600101906020018083116114ff57829003601f168201915b50505050509350995099509950995099509950995099509950509193959799909294969850565b60008a8a6040516020016115589291906127ce565b60408051601f1981840301815291905280516020909101206000546001600160a01b0316330361192457886115c45760405162461bcd60e51b815260206004820152601260248201527114185c9d0818dbd919481c995c5d5a5c995960721b60448201526064016104cd565b826116035760405162461bcd60e51b815260206004820152600f60248201526e1499585cdbdb881c995c5d5a5c9959608a1b60448201526064016104cd565b600580549060006116138361284f565b9190505550600554915060006116298d8d611f76565b90506040518061014001604052808481526020018281526020018c8c8080601f016020809104026020016040519081016040528093929190818152602001838380828437600092019190915250505090825250604080516020601f8d018190048102820181019092528b815291810191908c908c90819084018382808284376000920191909152505050908252506020018860028111156116cc576116cc6121dc565b815260200187815260200186868080601f01602080910402602001604051908101604052809392919081815260200183838082843760009201919091525050509082525033602082015242604082015260600160019052600084815260086020908152604091829020835181559083015160018201559082015160028201906117559082612a89565b506060820151600382019061176a9082612a89565b50608082015160048201805460ff1916600183600281111561178e5761178e6121dc565b021790555060a0820151600582015560c082015160068201906117b19082612a89565b5060e08201516007820180546001600160a01b0319166001600160a01b03909216919091179055610100820151600882015561012082015160098201805460ff19166001836002811115611807576118076121dc565b0217905550905050600c60008c8c6040516020016118269291906127ce565b60408051601f198184030181529181528151602092830120835282820193909352908201600090812080546001818101835591835283832001879055848252600e83528382208054918201815582529190200184905551819084907fb249b4e7a9cfccef0f264cc650f63c77f418cd01e7b1508605ab0530e3486157906118b8908f908f908d908d9033904290612b49565b60405180910390a3827f56a5c42cba58dabe3d616c8d61192acfe86ff6d095c50f0bac0e9cbff4cfbb7a6040516119169060208082526013908201527214d410549157d410549517d353d59153515395606a1b604082015260600190565b60405180910390a2506119ac565b3360009081526002602052604090205460ff16156112855733600090815260036020526040902054811461196a5760405162461bcd60e51b81526004016104cd90612a44565b886115c45760405162461bcd60e51b815260206004820152601260248201527114185c9d0818dbd919481c995c5d5a5c995960721b60448201526064016104cd565b509a9950505050505050505050565b6060600e600084846040516020016106709291906127ce565b6000818152600760208190526040822060018101546003820154600483015460068401549484015460088501546002860180546060988a9889988b988a988998899894979396939560ff93841695929460058a01946001600160a01b0390921693909116908790611a44906127de565b80601f0160208091040260200160405190810160405280929190818152602001828054611a70906127de565b8015611abd5780601f10611a9257610100808354040283529160200191611abd565b820191906000526020600020905b815481529060010190602001808311611aa057829003601f168201915b50505050509650838054611ad0906127de565b80601f0160208091040260200160405190810160405280929190818152602001828054611afc906127de565b8015611b495780601f10611b1e57610100808354040283529160200191611b49565b820191906000526020600020905b815481529060010190602001808311611b2c57829003601f168201915b505050505093509850985098509850985098509850985050919395975091939597565b6060600b600084846040516020016106709291906127ce565b60008888604051602001611b9a9291906127ce565b60408051601f1981840301815291905280516020909101206000546001600160a01b03163303611eed5786611be15760405162461bcd60e51b81526004016104cd90612818565b82611c205760405162461bcd60e51b815260206004820152600f60248201526e1499585cdbdb881c995c5d5a5c9959608a1b60448201526064016104cd565b60048054906000611c308361284f565b919050555060045491506000611c468b8b611f76565b90506040518061012001604052808481526020018281526020018a8a8080601f016020809104026020016040519081016040528093929190818152602001838380828437600092019190915250505090825250602001886002811115611cae57611cae6121dc565b815260200187815260200186868080601f0160208091040260200160405190810160405280939291908181526020018383808284376000920191909152505050908252503360208201524260408201526060016001905260008481526007602090815260409182902083518155908301516001820155908201516002820190611d379082612a89565b50606082015160038201805460ff19166001836002811115611d5b57611d5b6121dc565b02179055506080820151600482015560a08201516005820190611d7e9082612a89565b5060c08201516006820180546001600160a01b0319166001600160a01b0390921691909117905560e0820151600782015561010082015160088201805460ff19166001836002811115611dd357611dd36121dc565b0217905550905050600a60008a8a604051602001611df29291906127ce565b60408051601f198184030181529181528151602092830120835282820193909352908201600090812080546001818101835591835283832001879055848252600d83528382208054918201815582529190200184905551819084907f53e450f3210d299a068d0e586af39317b82d36391a8065e0df737ded0f5c63e090611e84908d908d908d908d9033904290612b49565b60405180910390a3827f56a5c42cba58dabe3d616c8d61192acfe86ff6d095c50f0bac0e9cbff4cfbb7a604051611edf9060208082526010908201526f1591521250d31157d353d5915351539560821b604082015260600190565b60405180910390a250611f50565b3360009081526002602052604090205460ff161561128557336000908152600360205260409020548114611f335760405162461bcd60e51b81526004016104cd90612a44565b86611be15760405162461bcd60e51b81526004016104cd90612818565b5098975050505050505050565b6060600f600084846040516020016106709291906127ce565b600080546001600160a01b031633036120065781611fd65760405162461bcd60e51b815260206004820181905260248201527f53757065722041646d696e206d7573742073706563696679206261736520494460448201526064016104cd565b8282604051602001611fe99291906127ce565b6040516020818303038152906040528051906020012090506106e6565b50336000908152600360205260409020546106e6565b80356001600160a01b038116811461203357600080fd5b919050565b60006020828403121561204a57600080fd5b6120538261201c565b9392505050565b60008083601f84011261206c57600080fd5b50813567ffffffffffffffff81111561208457600080fd5b60208301915083602082850101111561209c57600080fd5b9250929050565b6000806000604084860312156120b857600080fd5b833567ffffffffffffffff8111156120cf57600080fd5b6120db8682870161205a565b90945092506120ee90506020850161201c565b90509250925092565b6000806020838503121561210a57600080fd5b823567ffffffffffffffff81111561212157600080fd5b61212d8582860161205a565b90969095509350505050565b6020808252825182820181905260009190848201906040850190845b8181101561217157835183529284019291840191600101612155565b50909695505050505050565b60006020828403121561218f57600080fd5b5035919050565b6000815180845260005b818110156121bc576020818501810151868301820152016121a0565b506000602082860101526020601f19601f83011685010191505092915050565b634e487b7160e01b600052602160045260246000fd5b6003811061221057634e487b7160e01b600052602160045260246000fd5b50565b61221c816121f2565b9052565b60006101008a83528960208401528060408401526122408184018a612196565b905082810360608401526122548189612196565b608084018890526001600160a01b03871660a085015260c08401869052915061227e9050836121f2565b8260e08301529998505050505050505050565b60006101208b83528a60208401528060408401526122b18184018b612196565b90506122bc896121f2565b88606084015287608084015282810360a08401526122da8188612196565b6001600160a01b03871660c085015260e0840186905291506122fd9050836121f2565b826101008301529a9950505050505050505050565b60006101008a83526020818185015261232d8285018c612196565b91508382036040850152612341828b612196565b915083820360608501528189518084528284019150828160051b850101838c0160005b8381101561239257601f19878403018552612380838351612196565b94860194925090850190600101612364565b5050608087018b90526001600160a01b038a1660a088015294506123b69350505050565b8360c08301526123c960e0830184612213565b9998505050505050505050565b60006101408c83528b60208401528060408401526123f68184018c612196565b9050828103606084015261240a818b612196565b9050612415896121f2565b8860808401528760a084015282810360c08401526124338188612196565b6001600160a01b03871660e0850152610100840186905291506124579050836121f2565b826101208301529b9a5050505050505050505050565b600080600080600080600080600060a08a8c03121561248b57600080fd5b893567ffffffffffffffff808211156124a357600080fd5b6124af8d838e0161205a565b909b50995060208c01359150808211156124c857600080fd5b6124d48d838e0161205a565b909950975060408c01359150808211156124ed57600080fd5b6124f98d838e0161205a565b909750955060608c013591508082111561251257600080fd5b818c0191508c601f83011261252657600080fd5b81358181111561253557600080fd5b8d60208260051b850101111561254a57600080fd5b9a9d999c50979a9699959894975060200195608001359392505050565b60006101208b83528060208401526125818184018c612196565b905082810360408401526122b1818b612196565b80356003811061203357600080fd5b60008060008060008060008060008060c08b8d0312156125c357600080fd5b8a3567ffffffffffffffff808211156125db57600080fd5b6125e78e838f0161205a565b909c509a5060208d013591508082111561260057600080fd5b61260c8e838f0161205a565b909a50985060408d013591508082111561262557600080fd5b6126318e838f0161205a565b909850965086915061264560608e01612595565b955060808d0135945060a08d013591508082111561266257600080fd5b5061266f8d828e0161205a565b915080935050809150509295989b9194979a5092959850565b60006101008a83528060208401526126a28184018b612196565b90506126ad896121f2565b88604084015287606084015282810360808401526126cb8188612196565b6001600160a01b03871660a085015260c08401869052915061227e9050836121f2565b60008060008060008060008060a0898b03121561270a57600080fd5b883567ffffffffffffffff8082111561272257600080fd5b61272e8c838d0161205a565b909a50985060208b013591508082111561274757600080fd5b6127538c838d0161205a565b909850965086915061276760408c01612595565b955060608b0135945060808b013591508082111561278457600080fd5b506127918b828c0161205a565b999c989b5096995094979396929594505050565b634e487b7160e01b600052601160045260246000fd5b808201808211156106e6576106e66127a5565b8183823760009101908152919050565b600181811c908216806127f257607f821691505b60208210810361281257634e487b7160e01b600052602260045260246000fd5b50919050565b60208082526017908201527f56656869636c65206e756d626572207265717569726564000000000000000000604082015260600190565b600060018201612861576128616127a5565b5060010190565b634e487b7160e01b600052604160045260246000fd5b601f8211156128c857600081815260208120601f850160051c810160208610156128a55750805b601f850160051c820191505b818110156128c4578281556001016128b1565b5050505b505050565b67ffffffffffffffff8311156128e5576128e5612868565b6128f9836128f383546127de565b8361287e565b6000601f84116001811461292d57600085156129155750838201355b600019600387901b1c1916600186901b178355612987565b600083815260209020601f19861690835b8281101561295e578685013582556020948501946001909201910161293e565b508682101561297b5760001960f88860031b161c19848701351681555b505060018560011b0183555b5050505050565b634e487b7160e01b600052603260045260246000fd5b6000808335601e198436030181126129bb57600080fd5b83018035915067ffffffffffffffff8211156129d657600080fd5b60200191503681900382131561209c57600080fd5b81835281816020850137506000828201602090810191909152601f909101601f19169091010190565b606081526000612a286060830186886129eb565b6001600160a01b03949094166020830152506040015292915050565b60208082526025908201527f426173652041646d696e2063616e206f6e6c7920777269746520746f206f776e604082015264206261736560d81b606082015260800190565b815167ffffffffffffffff811115612aa357612aa3612868565b612ab781612ab184546127de565b8461287e565b602080601f831160018114612aec5760008415612ad45750858301515b600019600386901b1c1916600185901b1785556128c4565b600085815260208120601f198616915b82811015612b1b57888601518255948401946001909101908401612afc565b5085821015612b395787850151600019600388901b60f8161c191681555b5050505050600190811b01905550565b60a081526000612b5d60a08301888a6129eb565b9050612b68866121f2565b602082019590955260408101939093526001600160a01b039190911660608301526080909101529291505056fea264697066735822122066a860cc0acbaa33d65b3a114878a9a2a61a5db9ed64f9849fac30d765c6221864736f6c63430008130033",
  "immutableReferences": {},
  "source": "// SPDX-License-Identifier: MIT\r\npragma solidity ^0.8.19;\r\n\r\n/**\r\n * ============================================================\r\n *  LAYER 1 -  ASSET LEDGER  (Entry Validation & Recording)\r\n * ============================================================\r\n *\r\n * Every action a Base Admin or Super Admin performs (vehicle movement,\r\n * spare-part movement, maintenance record) is written here FIRST.\r\n *\r\n * Flow:  Admin action  ──►  This contract  ──►  MySQL storage\r\n *\r\n * ACCESS CONTROL (enforced ON-CHAIN):\r\n *   • Base Admin  → can ONLY write to their own registered base.\r\n *   • Super Admin → can write to ANY base (must provide base ID).\r\n *   • Anyone else → rejected.\r\n *\r\n * The contract validates the caller, records a tamper-proof on-chain\r\n * entry, and emits an event that the Django backend listens for as\r\n * confirmation before persisting to MySQL.\r\n *\r\n * Designed for a Ganache private network- gas costs are irrelevant.\r\n */\r\n\r\ncontract AssetLedger {\r\n\r\n    // ───────── Access Control ─────────\r\n    address public superAdmin;\r\n\r\n    // baseId (string hash) --> admin wallet address\r\n    mapping(bytes32 => address) public baseAdmins;\r\n    // wallet --> authorised?\r\n    mapping(address => bool)    public isAuthorisedAdmin;\r\n    // wallet --> baseId hash\r\n    mapping(address => bytes32) public adminToBase;\r\n\r\n    // ───────── Data Structures ─────────\r\n\r\n    enum MovementType { ADDITION, REMOVAL, TRANSFER }\r\n    enum RecordStatus { PENDING, VALIDATED, REJECTED }\r\n\r\n    struct VehicleMovement {\r\n        uint256   id;\r\n        bytes32   baseId;           // keccak256 of base name / code\r\n        string    vehicleNumber;\r\n        MovementType movementType;\r\n        int256    quantityChange;   // +ve for additions, -ve for removals\r\n        string    reason;\r\n        address   recordedBy;\r\n        uint256   timestamp;\r\n        RecordStatus status;\r\n    }\r\n\r\n    struct SparePartMovement {\r\n        uint256   id;\r\n        bytes32   baseId;\r\n        string    partCode;\r\n        string    partName;\r\n        MovementType movementType;\r\n        int256    quantityChange;\r\n        string    reason;\r\n        address   recordedBy;\r\n        uint256   timestamp;\r\n        RecordStatus status;\r\n    }\r\n\r\n    struct MaintenanceRecord {\r\n        uint256   id;\r\n        bytes32   baseId;\r\n        string    vehicleNumber;\r\n        string    description;\r\n        string[]  partsUsed;       // part codes consumed\r\n        uint256   costEstimate;    // in smallest unit (paise)\r\n        address   recordedBy;\r\n        uint256   timestamp;\r\n        RecordStatus status;\r\n    }\r\n\r\n    // ───────── Storage ─────────\r\n\r\n    uint256 public vehicleMovementCount;\r\n    uint256 public sparePartMovementCount;\r\n    uint256 public maintenanceRecordCount;\r\n\r\n    mapping(uint256 => VehicleMovement)   public vehicleMovements;\r\n    mapping(uint256 => SparePartMovement) public sparePartMovements;\r\n    mapping(uint256 => MaintenanceRecord) public maintenanceRecords;\r\n\r\n    // vehicleNumber hash --> array of movement IDs  (quick lookup)\r\n    mapping(bytes32 => uint256[]) private vehicleHistory;\r\n    // vehicleNumber hash --> array of maintenance IDs\r\n    mapping(bytes32 => uint256[]) private vehicleMaintenanceHistory;\r\n    // partCode hash --> array of spare-part movement IDs\r\n    mapping(bytes32 => uint256[]) private sparePartHistory;\r\n    // baseId hash --> array of all entry IDs (for per-base queries)\r\n    mapping(bytes32 => uint256[]) private baseVehicleMovements;\r\n    mapping(bytes32 => uint256[]) private baseSparePartMovements;\r\n    mapping(bytes32 => uint256[]) private baseMaintenanceRecords;\r\n\r\n    // ───────── Events ─────────\r\n\r\n    event BaseAdminRegistered(bytes32 indexed baseId, address admin);\r\n    event BaseAdminRevoked(bytes32 indexed baseId, address admin);\r\n\r\n    event VehicleMovementRecorded(\r\n        uint256 indexed id,\r\n        bytes32 indexed baseId,\r\n        string  vehicleNumber,\r\n        MovementType movementType,\r\n        int256  quantityChange,\r\n        address recordedBy,\r\n        uint256 timestamp\r\n    );\r\n\r\n    event SparePartMovementRecorded(\r\n        uint256 indexed id,\r\n        bytes32 indexed baseId,\r\n        string  partCode,\r\n        MovementType movementType,\r\n        int256  quantityChange,\r\n        address recordedBy,\r\n        uint256 timestamp\r\n    );\r\n\r\n    event MaintenanceRecordAdded(\r\n        uint256 indexed id,\r\n        bytes32 indexed baseId,\r\n        string  vehicleNumber,\r\n        address recordedBy,\r\n        uint256 timestamp\r\n    );\r\n\r\n    event EntryValidated(uint256 indexed entryId, string entryType);\r\n    event EntryRejected(uint256 indexed entryId, string entryType, string reason);\r\n\r\n    // ───────── Modifiers ─────────\r\n\r\n    modifier onlySuperAdmin() {\r\n        require(msg.sender == superAdmin, \"Only Super Admin\");\r\n        _;\r\n    }\r\n\r\n    /**\r\n     * @dev Core access control for all write operations.\r\n     *      - Super Admin → always allowed, uses the provided _baseId.\r\n     *      - Base Admin  → allowed ONLY if _baseId matches their registered base.\r\n     *      - Anyone else → reverted.\r\n     */\r\n    modifier onlyAuthorisedForBase(bytes32 _baseHash) {\r\n        if (msg.sender == superAdmin) {\r\n            // Super Admin can write to any base\r\n            _;\r\n        } else if (isAuthorisedAdmin[msg.sender]) {\r\n            // Base Admin must write to their own base only\r\n            require(\r\n                adminToBase[msg.sender] == _baseHash,\r\n                \"Base Admin can only write to own base\"\r\n            );\r\n            _;\r\n        } else {\r\n            revert(\"Not authorised - must be Super Admin or registered Base Admin\");\r\n        }\r\n    }\r\n\r\n    // ───────── Constructor ─────────\r\n\r\n    constructor() {\r\n        superAdmin = msg.sender;\r\n    }\r\n\r\n    // ═══════════ ADMIN MANAGEMENT ═══════════\r\n\r\n    /**\r\n     * @notice Register a wallet as a Base Admin for a given base.\r\n     * @param _baseId   Human-readable base identifier (hashed on-chain).\r\n     * @param _admin    Wallet address of the base admin.\r\n     */\r\n    function registerBaseAdmin(string calldata _baseId, address _admin)\r\n        external onlySuperAdmin\r\n    {\r\n        bytes32 baseHash = keccak256(abi.encodePacked(_baseId));\r\n\r\n        baseAdmins[baseHash]        = _admin;\r\n        isAuthorisedAdmin[_admin]   = true;\r\n        adminToBase[_admin]         = baseHash;\r\n\r\n        emit BaseAdminRegistered(baseHash, _admin);\r\n    }\r\n\r\n    /**\r\n     * @notice Revoke a Base Admin's access.\r\n     */\r\n    function revokeBaseAdmin(address _admin) external onlySuperAdmin {\r\n        bytes32 baseHash = adminToBase[_admin];\r\n\r\n        isAuthorisedAdmin[_admin]   = false;\r\n        baseAdmins[baseHash]        = address(0);\r\n        adminToBase[_admin]         = bytes32(0);\r\n\r\n        emit BaseAdminRevoked(baseHash, _admin);\r\n    }\r\n\r\n    // ═══════════ INTERNAL HELPER ═══════════\r\n\r\n    /**\r\n     * @dev Resolve which base a record belongs to.\r\n     *      Super Admin must provide a valid _baseId.\r\n     *      Base Admin's _baseId is ignored- their registered base is used.\r\n     */\r\n    function _resolveBaseHash(string calldata _baseId)\r\n        internal view\r\n        returns (bytes32)\r\n    {\r\n        if (msg.sender == superAdmin) {\r\n            // Super Admin: use the provided base ID (must not be empty)\r\n            require(bytes(_baseId).length > 0, \"Super Admin must specify base ID\");\r\n            return keccak256(abi.encodePacked(_baseId));\r\n        } else {\r\n            // Base Admin: always use their registered base (ignore _baseId param)\r\n            return adminToBase[msg.sender];\r\n        }\r\n    }\r\n\r\n    // ═══════════ LAYER 1- VEHICLE MOVEMENTS ═══════════\r\n\r\n    /**\r\n     * @notice Record a vehicle addition / removal / transfer.\r\n     * @param _baseId          Base identifier. Base Admin's own base is enforced;\r\n     *                         Super Admin can specify any base.\r\n     * @param _vehicleNumber   Vehicle registration / identifier.\r\n     * @param _movementType    ADDITION (0), REMOVAL (1), or TRANSFER (2).\r\n     * @param _quantityChange  +ve for additions, -ve for removals.\r\n     * @param _reason          Human-readable justification.\r\n     */\r\n    function addVehicleMovement(\r\n        string calldata _baseId,\r\n        string calldata _vehicleNumber,\r\n        MovementType    _movementType,\r\n        int256          _quantityChange,\r\n        string calldata _reason\r\n    )\r\n        external\r\n        onlyAuthorisedForBase(keccak256(abi.encodePacked(_baseId)))\r\n        returns (uint256 movementId)\r\n    {\r\n        require(bytes(_vehicleNumber).length > 0, \"Vehicle number required\");\r\n        require(bytes(_reason).length > 0,        \"Reason required\");\r\n\r\n        vehicleMovementCount++;\r\n        movementId = vehicleMovementCount;\r\n\r\n        bytes32 baseHash = _resolveBaseHash(_baseId);\r\n\r\n        vehicleMovements[movementId] = VehicleMovement({\r\n            id:             movementId,\r\n            baseId:         baseHash,\r\n            vehicleNumber:  _vehicleNumber,\r\n            movementType:   _movementType,\r\n            quantityChange: _quantityChange,\r\n            reason:         _reason,\r\n            recordedBy:     msg.sender,\r\n            timestamp:      block.timestamp,\r\n            status:         RecordStatus.VALIDATED\r\n        });\r\n\r\n        vehicleHistory[keccak256(abi.encodePacked(_vehicleNumber))].push(movementId);\r\n        baseVehicleMovements[baseHash].push(movementId);\r\n\r\n        emit VehicleMovementRecorded(\r\n            movementId, baseHash, _vehicleNumber,\r\n            _movementType, _quantityChange,\r\n            msg.sender, block.timestamp\r\n        );\r\n\r\n        emit EntryValidated(movementId, \"VEHICLE_MOVEMENT\");\r\n\r\n        return movementId;\r\n    }\r\n\r\n    // ═══════════ LAYER 1- SPARE PART MOVEMENTS ═══════════\r\n\r\n    /**\r\n     * @notice Record a spare-part stock change.\r\n     * @param _baseId   Base identifier (enforced per role).\r\n     */\r\n    function addSparePartMovement(\r\n        string calldata _baseId,\r\n        string calldata _partCode,\r\n        string calldata _partName,\r\n        MovementType    _movementType,\r\n        int256          _quantityChange,\r\n        string calldata _reason\r\n    )\r\n        external\r\n        onlyAuthorisedForBase(keccak256(abi.encodePacked(_baseId)))\r\n        returns (uint256 movementId)\r\n    {\r\n        require(bytes(_partCode).length > 0,  \"Part code required\");\r\n        require(bytes(_reason).length > 0,    \"Reason required\");\r\n\r\n        sparePartMovementCount++;\r\n        movementId = sparePartMovementCount;\r\n\r\n        bytes32 baseHash = _resolveBaseHash(_baseId);\r\n\r\n        sparePartMovements[movementId] = SparePartMovement({\r\n            id:             movementId,\r\n            baseId:         baseHash,\r\n            partCode:       _partCode,\r\n            partName:       _partName,\r\n            movementType:   _movementType,\r\n            quantityChange: _quantityChange,\r\n            reason:         _reason,\r\n            recordedBy:     msg.sender,\r\n            timestamp:      block.timestamp,\r\n            status:         RecordStatus.VALIDATED\r\n        });\r\n\r\n        sparePartHistory[keccak256(abi.encodePacked(_partCode))].push(movementId);\r\n        baseSparePartMovements[baseHash].push(movementId);\r\n\r\n        emit SparePartMovementRecorded(\r\n            movementId, baseHash, _partCode,\r\n            _movementType, _quantityChange,\r\n            msg.sender, block.timestamp\r\n        );\r\n\r\n        emit EntryValidated(movementId, \"SPARE_PART_MOVEMENT\");\r\n\r\n        return movementId;\r\n    }\r\n\r\n    // ═══════════ LAYER 1- MAINTENANCE RECORDS ═══════════\r\n\r\n    /**\r\n     * @notice Log a maintenance activity for a vehicle.\r\n     * @param _baseId   Base identifier (enforced per role).\r\n     */\r\n    function addMaintenanceRecord(\r\n        string calldata   _baseId,\r\n        string calldata   _vehicleNumber,\r\n        string calldata   _description,\r\n        string[] calldata _partsUsed,\r\n        uint256           _costEstimate\r\n    )\r\n        external\r\n        onlyAuthorisedForBase(keccak256(abi.encodePacked(_baseId)))\r\n        returns (uint256 recordId)\r\n    {\r\n        require(bytes(_vehicleNumber).length > 0, \"Vehicle number required\");\r\n        require(bytes(_description).length > 0,   \"Description required\");\r\n\r\n        maintenanceRecordCount++;\r\n        recordId = maintenanceRecordCount;\r\n\r\n        bytes32 baseHash = _resolveBaseHash(_baseId);\r\n\r\n        MaintenanceRecord storage rec = maintenanceRecords[recordId];\r\n        rec.id            = recordId;\r\n        rec.baseId        = baseHash;\r\n        rec.vehicleNumber = _vehicleNumber;\r\n        rec.description   = _description;\r\n        rec.costEstimate  = _costEstimate;\r\n        rec.recordedBy    = msg.sender;\r\n        rec.timestamp     = block.timestamp;\r\n        rec.status        = RecordStatus.VALIDATED;\r\n\r\n        for (uint256 i = 0; i < _partsUsed.length; i++) {\r\n            rec.partsUsed.push(_partsUsed[i]);\r\n        }\r\n\r\n        vehicleMaintenanceHistory[keccak256(abi.encodePacked(_vehicleNumber))].push(recordId);\r\n        baseMaintenanceRecords[baseHash].push(recordId);\r\n\r\n        emit MaintenanceRecordAdded(\r\n            recordId, baseHash, _vehicleNumber,\r\n            msg.sender, block.timestamp\r\n        );\r\n\r\n        emit EntryValidated(recordId, \"MAINTENANCE_RECORD\");\r\n\r\n        return recordId;\r\n    }\r\n\r\n    // ═══════════ READ FUNCTIONS (HISTORY) ═══════════\r\n\r\n    /**\r\n     * @notice Get all movement IDs for a vehicle number.\r\n     */\r\n    function getVehicleHistory(string calldata _vehicleNumber)\r\n        external view\r\n        returns (uint256[] memory)\r\n    {\r\n        return vehicleHistory[keccak256(abi.encodePacked(_vehicleNumber))];\r\n    }\r\n\r\n    /**\r\n     * @notice Get all maintenance record IDs for a vehicle.\r\n     */\r\n    function getVehicleMaintenanceHistory(string calldata _vehicleNumber)\r\n        external view\r\n        returns (uint256[] memory)\r\n    {\r\n        return vehicleMaintenanceHistory[keccak256(abi.encodePacked(_vehicleNumber))];\r\n    }\r\n\r\n    /**\r\n     * @notice Get all movement IDs for a spare part code.\r\n     */\r\n    function getSparePartHistory(string calldata _partCode)\r\n        external view\r\n        returns (uint256[] memory)\r\n    {\r\n        return sparePartHistory[keccak256(abi.encodePacked(_partCode))];\r\n    }\r\n\r\n    /**\r\n     * @notice Get all vehicle movement IDs for a specific base.\r\n     */\r\n    function getBaseVehicleMovements(string calldata _baseId)\r\n        external view\r\n        returns (uint256[] memory)\r\n    {\r\n        return baseVehicleMovements[keccak256(abi.encodePacked(_baseId))];\r\n    }\r\n\r\n    /**\r\n     * @notice Get all spare part movement IDs for a specific base.\r\n     */\r\n    function getBaseSparePartMovements(string calldata _baseId)\r\n        external view\r\n        returns (uint256[] memory)\r\n    {\r\n        return baseSparePartMovements[keccak256(abi.encodePacked(_baseId))];\r\n    }\r\n\r\n    /**\r\n     * @notice Get all maintenance record IDs for a specific base.\r\n     */\r\n    function getBaseMaintenanceRecords(string calldata _baseId)\r\n        external view\r\n        returns (uint256[] memory)\r\n    {\r\n        return baseMaintenanceRecords[keccak256(abi.encodePacked(_baseId))];\r\n    }\r\n\r\n    /**\r\n     * @notice Return full details of a vehicle movement by ID.\r\n     */\r\n    function getVehicleMovementDetails(uint256 _id)\r\n        external view\r\n        returns (\r\n            bytes32   baseId,\r\n            string memory vehicleNumber,\r\n            MovementType  movementType,\r\n            int256    quantityChange,\r\n            string memory reason,\r\n            address   recordedBy,\r\n            uint256   timestamp,\r\n            RecordStatus  status\r\n        )\r\n    {\r\n        VehicleMovement storage m = vehicleMovements[_id];\r\n        return (\r\n            m.baseId, m.vehicleNumber, m.movementType,\r\n            m.quantityChange, m.reason, m.recordedBy,\r\n            m.timestamp, m.status\r\n        );\r\n    }\r\n\r\n    /**\r\n     * @notice Return full details of a spare part movement by ID.\r\n     */\r\n    function getSparePartMovementDetails(uint256 _id)\r\n        external view\r\n        returns (\r\n            bytes32   baseId,\r\n            string memory partCode,\r\n            string memory partName,\r\n            MovementType  movementType,\r\n            int256    quantityChange,\r\n            string memory reason,\r\n            address   recordedBy,\r\n            uint256   timestamp,\r\n            RecordStatus  status\r\n        )\r\n    {\r\n        SparePartMovement storage m = sparePartMovements[_id];\r\n        return (\r\n            m.baseId, m.partCode, m.partName, m.movementType,\r\n            m.quantityChange, m.reason, m.recordedBy,\r\n            m.timestamp, m.status\r\n        );\r\n    }\r\n\r\n    /**\r\n     * @notice Return full details of a maintenance record by ID.\r\n     */\r\n    function getMaintenanceRecordDetails(uint256 _id)\r\n        external view\r\n        returns (\r\n            bytes32    baseId,\r\n            string memory vehicleNumber,\r\n            string memory description,\r\n            string[] memory partsUsed,\r\n            uint256    costEstimate,\r\n            address    recordedBy,\r\n            uint256    timestamp,\r\n            RecordStatus   status\r\n        )\r\n    {\r\n        MaintenanceRecord storage r = maintenanceRecords[_id];\r\n        return (\r\n            r.baseId, r.vehicleNumber, r.description,\r\n            r.partsUsed, r.costEstimate, r.recordedBy,\r\n            r.timestamp, r.status\r\n        );\r\n    }\r\n\r\n    // ═══════════ UTILITY ═══════════\r\n\r\n    /**\r\n     * @notice Total on-chain entries across all three categories.\r\n     */\r\n    function getTotalEntries() external view returns (uint256) {\r\n        return vehicleMovementCount + sparePartMovementCount + maintenanceRecordCount;\r\n    }\r\n\r\n    /**\r\n     * @notice Check whether an address is the Super Admin.\r\n     */\r\n    function isSuperAdmin(address _addr) external view returns (bool) {\r\n        return _addr == superAdmin;\r\n    }\r\n}\r\n",
  "sourcePath": "C:\\Users\\Samruddhi\\projects\\Military-Logistics-Optimization-and-Prediction-System-using-ML-and-Blockchain\\blockchain\\contracts\\AssetLedger.sol",
  "compiler": {
    "name": "solc",
    "version": "0.8.19+commit.7dd6d404.Emscripten.clang"
  },
  "schemaVersion": "3.4.16",
  "updatedAt": "2026-04-22T03:54:42.374Z",
  "networkType": "ethereum",
  "devdoc": {
    "kind": "dev",
    "methods": {
      "addMaintenanceRecord(string,string,string,string[],uint256)": {
        "params": {
          "_baseId": "Base identifier (enforced per role)."
        }
      },
      "addSparePartMovement(string,string,string,uint8,int256,string)": {
        "params": {
          "_baseId": "Base identifier (enforced per role)."
        }
      },
      "addVehicleMovement(string,string,uint8,int256,string)": {
        "params": {
          "_baseId": "Base identifier. Base Admin's own base is enforced;                         Super Admin can specify any base.",
          "_movementType": "ADDITION (0), REMOVAL (1), or TRANSFER (2).",
          "_quantityChange": "+ve for additions, -ve for removals.",
          "_reason": "Human-readable justification.",
          "_vehicleNumber": "Vehicle registration / identifier."
        }
      },
      "registerBaseAdmin(string,address)": {
        "params": {
          "_admin": "Wallet address of the base admin.",
          "_baseId": "Human-readable base identifier (hashed on-chain)."
        }
      }
    },
    "version": 1
  },
  "userdoc": {
    "kind": "user",
    "methods": {
      "addMaintenanceRecord(string,string,string,string[],uint256)": {
        "notice": "Log a maintenance activity for a vehicle."
      },
      "addSparePartMovement(string,string,string,uint8,int256,string)": {
        "notice": "Record a spare-part stock change."
      },
      "addVehicleMovement(string,string,uint8,int256,string)": {
        "notice": "Record a vehicle addition / removal / transfer."
      },
      "getBaseMaintenanceRecords(string)": {
        "notice": "Get all maintenance record IDs for a specific base."
      },
      "getBaseSparePartMovements(string)": {
        "notice": "Get all spare part movement IDs for a specific base."
      },
      "getBaseVehicleMovements(string)": {
        "notice": "Get all vehicle movement IDs for a specific base."
      },
      "getMaintenanceRecordDetails(uint256)": {
        "notice": "Return full details of a maintenance record by ID."
      },
      "getSparePartHistory(string)": {
        "notice": "Get all movement IDs for a spare part code."
      },
      "getSparePartMovementDetails(uint256)": {
        "notice": "Return full details of a spare part movement by ID."
      },
      "getTotalEntries()": {
        "notice": "Total on-chain entries across all three categories."
      },
      "getVehicleHistory(string)": {
        "notice": "Get all movement IDs for a vehicle number."
      },
      "getVehicleMaintenanceHistory(string)": {
        "notice": "Get all maintenance record IDs for a vehicle."
      },
      "getVehicleMovementDetails(uint256)": {
        "notice": "Return full details of a vehicle movement by ID."
      },
      "isSuperAdmin(address)": {
        "notice": "Check whether an address is the Super Admin."
      },
      "registerBaseAdmin(string,address)": {
        "notice": "Register a wallet as a Base Admin for a given base."
      },
      "revokeBaseAdmin(address)": {
        "notice": "Revoke a Base Admin's access."
      }
    },
    "notice": "============================================================  LAYER 1 -  ASSET LEDGER  (Entry Validation & Recording) ============================================================ Every action a Base Admin or Super Admin performs (vehicle movement, spare-part movement, maintenance record) is written here FIRST. Flow:  Admin action  ──►  This contract  ──►  MySQL storage ACCESS CONTROL (enforced ON-CHAIN):   • Base Admin  → can ONLY write to their own registered base.   • Super Admin → can write to ANY base (must provide base ID).   • Anyone else → rejected. The contract validates the caller, records a tamper-proof on-chain entry, and emits an event that the Django backend listens for as confirmation before persisting to MySQL. Designed for a Ganache private network- gas costs are irrelevant.",
    "version": 1
  }
}