{
  "contractName": "AuditTrail",
  "abi": [
    {
      "inputs": [],
      "stateMutability": "nonpayable",
      "type": "constructor"
    },
    {
      "anonymous": false,
      "inputs": [
        {
          "indexed": true,
          "internalType": "uint256",
          "name": "id",
          "type": "uint256"
        },
        {
          "indexed": true,
          "internalType": "bytes32",
          "name": "baseId",
          "type": "bytes32"
        },
        {
          "indexed": false,
          "internalType": "enum AuditTrail.ActionCategory",
          "name": "category",
          "type": "uint8"
        },
        {
          "indexed": false,
          "internalType": "uint256",
          "name": "layer1RefId",
          "type": "uint256"
        },
        {
          "indexed": false,
          "internalType": "bytes32",
          "name": "dataHash",
          "type": "bytes32"
        },
        {
          "indexed": false,
          "internalType": "uint256",
          "name": "timestamp",
          "type": "uint256"
        }
      ],
      "name": "AuditEntryLogged",
      "type": "event"
    },
    {
      "anonymous": false,
      "inputs": [
        {
          "indexed": false,
          "internalType": "address",
          "name": "backend",
          "type": "address"
        }
      ],
      "name": "BackendAuthorised",
      "type": "event"
    },
    {
      "anonymous": false,
      "inputs": [
        {
          "indexed": false,
          "internalType": "address",
          "name": "backend",
          "type": "address"
        }
      ],
      "name": "BackendRevoked",
      "type": "event"
    },
    {
      "anonymous": false,
      "inputs": [
        {
          "indexed": true,
          "internalType": "uint256",
          "name": "id",
          "type": "uint256"
        },
        {
          "indexed": true,
          "internalType": "bytes32",
          "name": "baseId",
          "type": "bytes32"
        },
        {
          "indexed": false,
          "internalType": "string",
          "name": "predictionType",
          "type": "string"
        },
        {
          "indexed": false,
          "internalType": "enum AuditTrail.AlertSeverity",
          "name": "severity",
          "type": "uint8"
        },
        {
          "indexed": false,
          "internalType": "string",
          "name": "affectedAsset",
          "type": "string"
        },
        {
          "indexed": false,
          "internalType": "uint256",
          "name": "confidence",
          "type": "uint256"
        },
        {
          "indexed": false,
          "internalType": "uint256",
          "name": "timestamp",
          "type": "uint256"
        }
      ],
      "name": "MLPredictionStored",
      "type": "event"
    },
    {
      "inputs": [
        {
          "internalType": "uint256",
          "name": "",
          "type": "uint256"
        }
      ],
      "name": "auditEntries",
      "outputs": [
        {
          "internalType": "uint256",
          "name": "id",
          "type": "uint256"
        },
        {
          "internalType": "bytes32",
          "name": "baseId",
          "type": "bytes32"
        },
        {
          "internalType": "enum AuditTrail.ActionCategory",
          "name": "category",
          "type": "uint8"
        },
        {
          "internalType": "uint256",
          "name": "layer1RefId",
          "type": "uint256"
        },
        {
          "internalType": "string",
          "name": "actionSummary",
          "type": "string"
        },
        {
          "internalType": "string",
          "name": "performedBy",
          "type": "string"
        },
        {
          "internalType": "bytes32",
          "name": "dataHash",
          "type": "bytes32"
        },
        {
          "internalType": "uint256",
          "name": "timestamp",
          "type": "uint256"
        }
      ],
      "stateMutability": "view",
      "type": "function",
      "constant": true
    },
    {
      "inputs": [],
      "name": "auditEntryCount",
      "outputs": [
        {
          "internalType": "uint256",
          "name": "",
          "type": "uint256"
        }
      ],
      "stateMutability": "view",
      "type": "function",
      "constant": true
    },
    {
      "inputs": [
        {
          "internalType": "address",
          "name": "",
          "type": "address"
        }
      ],
      "name": "authorisedBackends",
      "outputs": [
        {
          "internalType": "bool",
          "name": "",
          "type": "bool"
        }
      ],
      "stateMutability": "view",
      "type": "function",
      "constant": true
    },
    {
      "inputs": [],
      "name": "mlPredictionCount",
      "outputs": [
        {
          "internalType": "uint256",
          "name": "",
          "type": "uint256"
        }
      ],
      "stateMutability": "view",
      "type": "function",
      "constant": true
    },
    {
      "inputs": [
        {
          "internalType": "uint256",
          "name": "",
          "type": "uint256"
        }
      ],
      "name": "mlPredictions",
      "outputs": [
        {
          "internalType": "uint256",
          "name": "id",
          "type": "uint256"
        },
        {
          "internalType": "bytes32",
          "name": "baseId",
          "type": "bytes32"
        },
        {
          "internalType": "string",
          "name": "predictionType",
          "type": "string"
        },
        {
          "internalType": "string",
          "name": "description",
          "type": "string"
        },
        {
          "internalType": "enum AuditTrail.AlertSeverity",
          "name": "severity",
          "type": "uint8"
        },
        {
          "internalType": "string",
          "name": "affectedAsset",
          "type": "string"
        },
        {
          "internalType": "uint256",
          "name": "confidence",
          "type": "uint256"
        },
        {
          "internalType": "string",
          "name": "recommendedAction",
          "type": "string"
        },
        {
          "internalType": "uint256",
          "name": "timestamp",
          "type": "uint256"
        }
      ],
      "stateMutability": "view",
      "type": "function",
      "constant": true
    },
    {
      "inputs": [],
      "name": "superAdmin",
      "outputs": [
        {
          "internalType": "address",
          "name": "",
          "type": "address"
        }
      ],
      "stateMutability": "view",
      "type": "function",
      "constant": true
    },
    {
      "inputs": [
        {
          "internalType": "address",
          "name": "_backend",
          "type": "address"
        }
      ],
      "name": "authoriseBackend",
      "outputs": [],
      "stateMutability": "nonpayable",
      "type": "function"
    },
    {
      "inputs": [
        {
          "internalType": "address",
          "name": "_backend",
          "type": "address"
        }
      ],
      "name": "revokeBackend",
      "outputs": [],
      "stateMutability": "nonpayable",
      "type": "function"
    },
    {
      "inputs": [
        {
          "internalType": "string",
          "name": "_baseId",
          "type": "string"
        },
        {
          "internalType": "enum AuditTrail.ActionCategory",
          "name": "_category",
          "type": "uint8"
        },
        {
          "internalType": "uint256",
          "name": "_layer1RefId",
          "type": "uint256"
        },
        {
          "internalType": "string",
          "name": "_actionSummary",
          "type": "string"
        },
        {
          "internalType": "string",
          "name": "_performedBy",
          "type": "string"
        },
        {
          "internalType": "bytes32",
          "name": "_dataHash",
          "type": "bytes32"
        },
        {
          "internalType": "string",
          "name": "_affectedAsset",
          "type": "string"
        }
      ],
      "name": "logAuditEntry",
      "outputs": [
        {
          "internalType": "uint256",
          "name": "entryId",
          "type": "uint256"
        }
      ],
      "stateMutability": "nonpayable",
      "type": "function"
    },
    {
      "inputs": [
        {
          "internalType": "string",
          "name": "_baseId",
          "type": "string"
        },
        {
          "internalType": "string",
          "name": "_predictionType",
          "type": "string"
        },
        {
          "internalType": "string",
          "name": "_description",
          "type": "string"
        },
        {
          "internalType": "enum AuditTrail.AlertSeverity",
          "name": "_severity",
          "type": "uint8"
        },
        {
          "internalType": "string",
          "name": "_affectedAsset",
          "type": "string"
        },
        {
          "internalType": "uint256",
          "name": "_confidence",
          "type": "uint256"
        },
        {
          "internalType": "string",
          "name": "_recommendedAction",
          "type": "string"
        }
      ],
      "name": "storeMLPrediction",
      "outputs": [
        {
          "internalType": "uint256",
          "name": "predictionId",
          "type": "uint256"
        }
      ],
      "stateMutability": "nonpayable",
      "type": "function"
    },
    {
      "inputs": [
        {
          "internalType": "string",
          "name": "_baseId",
          "type": "string"
        }
      ],
      "name": "getBaseAuditTrail",
      "outputs": [
        {
          "internalType": "uint256[]",
          "name": "",
          "type": "uint256[]"
        }
      ],
      "stateMutability": "view",
      "type": "function",
      "constant": true
    },
    {
      "inputs": [
        {
          "internalType": "string",
          "name": "_baseId",
          "type": "string"
        }
      ],
      "name": "getBasePredictions",
      "outputs": [
        {
          "internalType": "uint256[]",
          "name": "",
          "type": "uint256[]"
        }
      ],
      "stateMutability": "view",
      "type": "function",
      "constant": true
    },
    {
      "inputs": [
        {
          "internalType": "string",
          "name": "_asset",
          "type": "string"
        }
      ],
      "name": "getAssetAuditTrail",
      "outputs": [
        {
          "internalType": "uint256[]",
          "name": "",
          "type": "uint256[]"
        }
      ],
      "stateMutability": "view",
      "type": "function",
      "constant": true
    },
    {
      "inputs": [
        {
          "internalType": "string",
          "name": "_asset",
          "type": "string"
        }
      ],
      "name": "getAssetPredictions",
      "outputs": [
        {
          "internalType": "uint256[]",
          "name": "",
          "type": "uint256[]"
        }
      ],
      "stateMutability": "view",
      "type": "function",
      "constant": true
    },
    {
      "inputs": [
        {
          "internalType": "uint256",
          "name": "_id",
          "type": "uint256"
        }
      ],
      "name": "getAuditEntryDetails",
      "outputs": [
        {
          "internalType": "bytes32",
          "name": "baseId",
          "type": "bytes32"
        },
        {
          "internalType": "enum AuditTrail.ActionCategory",
          "name": "category",
          "type": "uint8"
        },
        {
          "internalType": "uint256",
          "name": "layer1RefId",
          "type": "uint256"
        },
        {
          "internalType": "string",
          "name": "actionSummary",
          "type": "string"
        },
        {
          "internalType": "string",
          "name": "performedBy",
          "type": "string"
        },
        {
          "internalType": "bytes32",
          "name": "dataHash",
          "type": "bytes32"
        },
        {
          "internalType": "uint256",
          "name": "timestamp",
          "type": "uint256"
        }
      ],
      "stateMutability": "view",
      "type": "function",
      "constant": true
    },
    {
      "inputs": [
        {
          "internalType": "uint256",
          "name": "_id",
          "type": "uint256"
        }
      ],
      "name": "getMLPredictionDetails",
      "outputs": [
        {
          "internalType": "bytes32",
          "name": "baseId",
          "type": "bytes32"
        },
        {
          "internalType": "string",
          "name": "predictionType",
          "type": "string"
        },
        {
          "internalType": "string",
          "name": "description",
          "type": "string"
        },
        {
          "internalType": "enum AuditTrail.AlertSeverity",
          "name": "severity",
          "type": "uint8"
        },
        {
          "internalType": "string",
          "name": "affectedAsset",
          "type": "string"
        },
        {
          "internalType": "uint256",
          "name": "confidence",
          "type": "uint256"
        },
        {
          "internalType": "string",
          "name": "recommendedAction",
          "type": "string"
        },
        {
          "internalType": "uint256",
          "name": "timestamp",
          "type": "uint256"
        }
      ],
      "stateMutability": "view",
      "type": "function",
      "constant": true
    },
    {
      "inputs": [
        {
          "internalType": "uint256",
          "name": "_auditEntryId",
          "type": "uint256"
        },
        {
          "internalType": "bytes32",
          "name": "_expectedHash",
          "type": "bytes32"
        }
      ],
      "name": "verifyDataIntegrity",
      "outputs": [
        {
          "internalType": "bool",
          "name": "",
          "type": "bool"
        }
      ],
      "stateMutability": "view",
      "type": "function",
      "constant": true
    },
    {
      "inputs": [],
      "name": "getTotalRecords",
      "outputs": [
        {
          "internalType": "uint256",
          "name": "audits",
          "type": "uint256"
        },
        {
          "internalType": "uint256",
          "name": "predictions",
          "type": "uint256"
        }
      ],
      "stateMutability": "view",
      "type": "function",
      "constant": true
    }
  ],
  "bytecode": "0x608060405234801561001057600080fd5b50600080546001600160a01b03191633179055611bc8806100326000396000f3fe608060405234801561001057600080fd5b50600436106101165760003560e01c806375694003116100a25780638ecb2125116100715780638ecb2125146102b6578063a62fc02a146102c9578063a70b6ecc146102d2578063d95a5f16146102f5578063f3a7a3471461031c57600080fd5b8063756940031461022157806377258b4414610234578063820c08c51461025b57806389e0465b1461028157600080fd5b8063225c75c6116100e9578063225c75c61461019b57806329575f6a146101bb5780633c7279a0146101e65780635b3b3c76146101fb578063685862961461020e57600080fd5b80630a04caad1461011b5780630aeacb5e1461014c5780630ff5258f1461016757806310710fe014610188575b600080fd5b61012e6101293660046113b2565b610325565b6040516101439998979695949392919061143b565b60405180910390f35b60025460035460408051928352602083019190915201610143565b61017a61017536600461151f565b610595565b604051908152602001610143565b61017a61019636600461161a565b610854565b6101ae6101a9366004611744565b610c11565b6040516101439190611786565b6000546101ce906001600160a01b031681565b6040516001600160a01b039091168152602001610143565b6101f96101f43660046117ca565b610ca5565b005b6101ae610209366004611744565b610d4a565b6101ae61021c366004611744565b610d63565b6101ae61022f366004611744565b610d7c565b6102476102423660046113b2565b610d95565b6040516101439897969594939291906117fa565b61026e6102693660046113b2565b611037565b6040516101439796959493929190611889565b6102a661028f3660046118de565b600091825260046020526040909120600601541490565b6040519015158152602001610143565b6101f96102c43660046117ca565b6111b9565b61017a60025481565b6102a66102e03660046117ca565b60016020526000908152604090205460ff1681565b6103086103033660046113b2565b61125b565b604051610143989796959493929190611900565b61017a60035481565b6005602052600090815260409020805460018201546002830180549293919261034d9061195f565b80601f01602080910402602001604051908101604052809291908181526020018280546103799061195f565b80156103c65780601f1061039b576101008083540402835291602001916103c6565b820191906000526020600020905b8154815290600101906020018083116103a957829003601f168201915b5050505050908060030180546103db9061195f565b80601f01602080910402602001604051908101604052809291908181526020018280546104079061195f565b80156104545780601f1061042957610100808354040283529160200191610454565b820191906000526020600020905b81548152906001019060200180831161043757829003601f168201915b5050506004840154600585018054949560ff9092169491935091506104789061195f565b80601f01602080910402602001604051908101604052809291908181526020018280546104a49061195f565b80156104f15780601f106104c6576101008083540402835291602001916104f1565b820191906000526020600020905b8154815290600101906020018083116104d457829003601f168201915b50505050509080600601549080600701805461050c9061195f565b80601f01602080910402602001604051908101604052809291908181526020018280546105389061195f565b80156105855780601f1061055a57610100808354040283529160200191610585565b820191906000526020600020905b81548152906001019060200180831161056857829003601f168201915b5050505050908060080154905089565b600080546001600160a01b03163314806105be57503360009081526001602052604090205460ff165b6106005760405162461bcd60e51b815260206004820152600e60248201526d139bdd08185d5d1a1bdc9a5cd95960921b60448201526064015b60405180910390fd5b6002805490600061061083611999565b9190505550600254905060008c8c60405160200161062f9291906119c0565b6040516020818303038152906040528051906020012090506040518061010001604052808381526020018281526020018c600281111561067157610671611411565b81526020018b81526020018a8a8080601f016020809104026020016040519081016040528093929190818152602001838380828437600092019190915250505090825250604080516020601f8b0181900481028201810190925289815291810191908a908a9081908401838280828437600092018290525093855250505060208083018990524260409384015285825260048152908290208351815590830151600180830191909155918301516002808301805493949293909260ff1990911691849081111561074357610743611411565b021790555060608201516003820155608082015160048201906107669082611a35565b5060a0820151600582019061077b9082611a35565b5060c082015160068083019190915560e090920151600790910155600082815260209182526040808220805460018101825590835283832001859055516008926107c99188918891016119c0565b60408051601f198184030181529181528151602092830120835282820193909352908201600090812080546001810182559082529190200183905551819083907fd67e08f0d1c4e11027c4b658bebfcc09d28b0146dc27e9b466c7bf0eaf4a25259061083c908f908f908b904290611af5565b60405180910390a3509b9a5050505050505050505050565b600080546001600160a01b031633148061087d57503360009081526001602052604090205460ff165b6108ba5760405162461bcd60e51b815260206004820152600e60248201526d139bdd08185d5d1a1bdc9a5cd95960921b60448201526064016105f7565b61271084111561091c5760405162461bcd60e51b815260206004820152602760248201527f436f6e666964656e6365206d75737420626520302d313030303020626173697360448201526620706f696e747360c81b60648201526084016105f7565b6003805490600061092c83611999565b9190505550600354905060008d8d60405160200161094b9291906119c0565b6040516020818303038152906040528051906020012090506040518061012001604052808381526020018281526020018d8d8080601f016020809104026020016040519081016040528093929190818152602001838380828437600092019190915250505090825250604080516020601f8e018190048102820181019092528c815291810191908d908d9081908401838280828437600092019190915250505090825250602001896004811115610a0457610a04611411565b815260200188888080601f016020809104026020016040519081016040528093929190818152602001838380828437600092019190915250505090825250602080820188905260408051601f8801839004830281018301825287815292019190879087908190840183828082843760009201829052509385525050426020938401525084815260058252604090819020835181559183015160018301558201516002820190610ab39082611a35565b5060608201516003820190610ac89082611a35565b5060808201518160040160006101000a81548160ff02191690836004811115610af357610af3611411565b021790555060a08201516005820190610b0c9082611a35565b5060c0820151600682015560e08201516007820190610b2b9082611a35565b50610100919091015160089091015560008181526007602090815260408083208054600181018255908452828420018590555160099291610b70918b918b91016119c0565b60405160208183030381529060405280519060200120815260200190815260200160002082908060018154018082558091505060019003906000526020600020016000909190919091505580827f1a23d52ab46b6a1565aa9d66a4a7b8b0877b166fb8bdd74071fd743e234a41568e8e8c8c8c8c42604051610bf89796959493929190611b47565b60405180910390a3509c9b505050505050505050505050565b6060600760008484604051602001610c2a9291906119c0565b604051602081830303815290604052805190602001208152602001908152602001600020805480602002602001604051908101604052809291908181526020018280548015610c9857602002820191906000526020600020905b815481526020019060010190808311610c84575b5050505050905092915050565b6000546001600160a01b03163314610cf25760405162461bcd60e51b815260206004820152601060248201526f27b7363c9029bab832b91020b236b4b760811b60448201526064016105f7565b6001600160a01b038116600081815260016020908152604091829020805460ff1916905590519182527ff67d2fe786130b5e40e7072669d48d149b5f06b216df088ce137f3101d29fcf391015b60405180910390a150565b6060600960008484604051602001610c2a9291906119c0565b6060600660008484604051602001610c2a9291906119c0565b6060600860008484604051602001610c2a9291906119c0565b60006060806000606060006060600080600560008b81526020019081526020016000209050806001015481600201826003018360040160009054906101000a900460ff16846005018560060154866007018760080154868054610df79061195f565b80601f0160208091040260200160405190810160405280929190818152602001828054610e239061195f565b8015610e705780601f10610e4557610100808354040283529160200191610e70565b820191906000526020600020905b815481529060010190602001808311610e5357829003601f168201915b50505050509650858054610e839061195f565b80601f0160208091040260200160405190810160405280929190818152602001828054610eaf9061195f565b8015610efc5780601f10610ed157610100808354040283529160200191610efc565b820191906000526020600020905b815481529060010190602001808311610edf57829003601f168201915b50505050509550838054610f0f9061195f565b80601f0160208091040260200160405190810160405280929190818152602001828054610f3b9061195f565b8015610f885780601f10610f5d57610100808354040283529160200191610f88565b820191906000526020600020905b815481529060010190602001808311610f6b57829003601f168201915b50505050509350818054610f9b9061195f565b80601f0160208091040260200160405190810160405280929190818152602001828054610fc79061195f565b80156110145780601f10610fe957610100808354040283529160200191611014565b820191906000526020600020905b815481529060010190602001808311610ff757829003601f168201915b505050505091509850985098509850985098509850985050919395975091939597565b60008060006060806000806000600460008a8152602001908152602001600020905080600101548160020160009054906101000a900460ff1682600301548360040184600501856006015486600701548380546110939061195f565b80601f01602080910402602001604051908101604052809291908181526020018280546110bf9061195f565b801561110c5780601f106110e15761010080835404028352916020019161110c565b820191906000526020600020905b8154815290600101906020018083116110ef57829003601f168201915b5050505050935082805461111f9061195f565b80601f016020809104026020016040519081016040528092919081815260200182805461114b9061195f565b80156111985780601f1061116d57610100808354040283529160200191611198565b820191906000526020600020905b81548152906001019060200180831161117b57829003601f168201915b50505050509250975097509750975097509750975050919395979092949650565b6000546001600160a01b031633146112065760405162461bcd60e51b815260206004820152601060248201526f27b7363c9029bab832b91020b236b4b760811b60448201526064016105f7565b6001600160a01b038116600081815260016020818152604092839020805460ff191690921790915590519182527f96c572fbed4a0cf5fb4d475605dfb526fc96267d69cfdcc03fbbed3b7985c4f59101610d3f565b6004602081905260009182526040909120805460018201546002830154600384015494840180549395929460ff909216936112959061195f565b80601f01602080910402602001604051908101604052809291908181526020018280546112c19061195f565b801561130e5780601f106112e35761010080835404028352916020019161130e565b820191906000526020600020905b8154815290600101906020018083116112f157829003601f168201915b5050505050908060050180546113239061195f565b80601f016020809104026020016040519081016040528092919081815260200182805461134f9061195f565b801561139c5780601f106113715761010080835404028352916020019161139c565b820191906000526020600020905b81548152906001019060200180831161137f57829003601f168201915b5050505050908060060154908060070154905088565b6000602082840312156113c457600080fd5b5035919050565b6000815180845260005b818110156113f1576020818501810151868301820152016113d5565b506000602082860101526020601f19601f83011685010191505092915050565b634e487b7160e01b600052602160045260246000fd5b6005811061143757611437611411565b9052565b60006101208b83528a602084015280604084015261145b8184018b6113cb565b9050828103606084015261146f818a6113cb565b905061147e6080840189611427565b82810360a084015261149081886113cb565b90508560c084015282810360e08401526114aa81866113cb565b915050826101008301529a9950505050505050505050565b60008083601f8401126114d457600080fd5b50813567ffffffffffffffff8111156114ec57600080fd5b60208301915083602082850101111561150457600080fd5b9250929050565b80356003811061151a57600080fd5b919050565b600080600080600080600080600080600060e08c8e03121561154057600080fd5b67ffffffffffffffff808d35111561155757600080fd5b6115648e8e358f016114c2565b909c509a5061157560208e0161150b565b995060408d013598508060608e0135111561158f57600080fd5b61159f8e60608f01358f016114c2565b909850965060808d01358110156115b557600080fd5b6115c58e60808f01358f016114c2565b909650945060a08d0135935060c08d01358110156115e257600080fd5b506115f38d60c08e01358e016114c2565b81935080925050509295989b509295989b9093969950565b80356005811061151a57600080fd5b60008060008060008060008060008060008060e08d8f03121561163c57600080fd5b67ffffffffffffffff8d35111561165257600080fd5b61165f8e8e358f016114c2565b909c509a5067ffffffffffffffff60208e0135111561167d57600080fd5b61168d8e60208f01358f016114c2565b909a50985067ffffffffffffffff60408e013511156116ab57600080fd5b6116bb8e60408f01358f016114c2565b90985096506116cc60608e0161160b565b955067ffffffffffffffff60808e013511156116e757600080fd5b6116f78e60808f01358f016114c2565b909550935060a08d0135925067ffffffffffffffff60c08e0135111561171c57600080fd5b61172c8e60c08f01358f016114c2565b81935080925050509295989b509295989b509295989b565b6000806020838503121561175757600080fd5b823567ffffffffffffffff81111561176e57600080fd5b61177a858286016114c2565b90969095509350505050565b6020808252825182820181905260009190848201906040850190845b818110156117be578351835292840192918401916001016117a2565b50909695505050505050565b6000602082840312156117dc57600080fd5b81356001600160a01b03811681146117f357600080fd5b9392505050565b60006101008a83528060208401526118148184018b6113cb565b90508281036040840152611828818a6113cb565b90506118376060840189611427565b828103608084015261184981886113cb565b90508560a084015282810360c084015261186381866113cb565b9150508260e08301529998505050505050505050565b6003811061143757611437611411565b8781526118996020820188611879565b85604082015260e0606082015260006118b560e08301876113cb565b82810360808401526118c781876113cb565b60a0840195909552505060c0015295945050505050565b600080604083850312156118f157600080fd5b50508035926020909101359150565b60006101008a835289602084015261191b604084018a611879565b876060840152806080840152611933818401886113cb565b905082810360a084015261194781876113cb565b60c0840195909552505060e001529695505050505050565b600181811c9082168061197357607f821691505b60208210810361199357634e487b7160e01b600052602260045260246000fd5b50919050565b6000600182016119b957634e487b7160e01b600052601160045260246000fd5b5060010190565b8183823760009101908152919050565b634e487b7160e01b600052604160045260246000fd5b601f821115611a3057600081815260208120601f850160051c81016020861015611a0d5750805b601f850160051c820191505b81811015611a2c57828155600101611a19565b5050505b505050565b815167ffffffffffffffff811115611a4f57611a4f6119d0565b611a6381611a5d845461195f565b846119e6565b602080601f831160018114611a985760008415611a805750858301515b600019600386901b1c1916600185901b178555611a2c565b600085815260208120601f198616915b82811015611ac757888601518255948401946001909101908401611aa8565b5085821015611ae55787850151600019600388901b60f8161c191681555b5050505050600190811b01905550565b60808101611b038287611879565b84602083015283604083015282606083015295945050505050565b81835281816020850137506000828201602090810191909152601f909101601f19169091010190565b60a081526000611b5b60a08301898b611b1e565b611b686020840189611427565b8281036040840152611b7b818789611b1e565b60608401959095525050608001529594505050505056fea2646970667358221220c1ab085c7f6206a931241553229b5f701a269767449585448f4099fc1bdbaa0d64736f6c63430008130033",
  "immutableReferences": {},
  "source": "// SPDX-License-Identifier: MIT\r\npragma solidity ^0.8.19;\r\n\r\n/**\r\n * ============================================================\r\n *  LAYER 2 -  AUDIT TRAIL  (Immutable Audit Log & ML Predictions)\r\n * ============================================================\r\n *\r\n * After data flows through MySQL and the ML pipeline, the results\r\n * are written back to this contract so that:\r\n *   1. Every action has a permanent, tamper-proof audit entry.\r\n *   2. ML predictions (alerts, anomalies, demand forecasts) are\r\n *      stored on-chain for verifiability.\r\n *\r\n * Flow:  MySQL  ──►  ML Engine  ──►  This contract  ──►  Dashboard\r\n *\r\n * The Django backend calls these functions via Web3.py after ML\r\n * processing is complete.\r\n */\r\n\r\ncontract AuditTrail {\r\n\r\n    // ───────── Access Control ─────────\r\n    address public superAdmin;\r\n    mapping(address => bool) public authorisedBackends;   // Django backend wallets\r\n\r\n    // ───────── Data Structures ─────────\r\n\r\n    enum ActionCategory { VEHICLE_MOVEMENT, SPARE_PART_MOVEMENT, MAINTENANCE }\r\n    enum AlertSeverity  { INFO, LOW, MEDIUM, HIGH, CRITICAL }\r\n\r\n    struct AuditEntry {\r\n        uint256         id;\r\n        bytes32         baseId;\r\n        ActionCategory  category;\r\n        uint256         layer1RefId;    // ID from AssetLedger contract\r\n        string          actionSummary;  // human-readable summary\r\n        string          performedBy;    // username / wallet\r\n        bytes32         dataHash;       // SHA-256 of the MySQL row for integrity check\r\n        uint256         timestamp;\r\n    }\r\n\r\n    struct MLPrediction {\r\n        uint256         id;\r\n        bytes32         baseId;\r\n        string          predictionType;   // e.g. \"DEMAND_FORECAST\", \"ANOMALY\", \"MAINTENANCE_DUE\"\r\n        string          description;      // ML model output summary\r\n        AlertSeverity   severity;\r\n        string          affectedAsset;    // vehicle number or part code\r\n        uint256         confidence;       // 0-10000 (basis points, i.e. 9500 = 95.00%)\r\n        string          recommendedAction;\r\n        uint256         timestamp;\r\n    }\r\n\r\n    // ───────── Storage ─────────\r\n\r\n    uint256 public auditEntryCount;\r\n    uint256 public mlPredictionCount;\r\n\r\n    mapping(uint256 => AuditEntry)   public auditEntries;\r\n    mapping(uint256 => MLPrediction) public mlPredictions;\r\n\r\n    // base --> audit entry IDs\r\n    mapping(bytes32 => uint256[]) private baseAuditTrail;\r\n    // base --> ML prediction IDs\r\n    mapping(bytes32 => uint256[]) private basePredictions;\r\n    // asset hash --> audit entry IDs\r\n    mapping(bytes32 => uint256[]) private assetAuditTrail;\r\n    // asset hash --> ML prediction IDs\r\n    mapping(bytes32 => uint256[]) private assetPredictions;\r\n\r\n    // ───────── Events ─────────\r\n\r\n    event AuditEntryLogged(\r\n        uint256 indexed id,\r\n        bytes32 indexed baseId,\r\n        ActionCategory  category,\r\n        uint256         layer1RefId,\r\n        bytes32         dataHash,\r\n        uint256         timestamp\r\n    );\r\n\r\n    event MLPredictionStored(\r\n        uint256 indexed id,\r\n        bytes32 indexed baseId,\r\n        string          predictionType,\r\n        AlertSeverity   severity,\r\n        string          affectedAsset,\r\n        uint256         confidence,\r\n        uint256         timestamp\r\n    );\r\n\r\n    event BackendAuthorised(address backend);\r\n    event BackendRevoked(address backend);\r\n\r\n    // ───────── Modifiers ─────────\r\n\r\n    modifier onlySuperAdmin() {\r\n        require(msg.sender == superAdmin, \"Only Super Admin\");\r\n        _;\r\n    }\r\n\r\n    modifier onlyAuthorised() {\r\n        require(\r\n            msg.sender == superAdmin || authorisedBackends[msg.sender],\r\n            \"Not authorised\"\r\n        );\r\n        _;\r\n    }\r\n\r\n    // ───────── Constructor ─────────\r\n\r\n    constructor() {\r\n        superAdmin = msg.sender;\r\n    }\r\n\r\n    // ═══════════ AUTHORISATION ═══════════\r\n\r\n    /**\r\n     * @notice Authorise a backend wallet (the Django server's account) to write entries.\r\n     */\r\n    function authoriseBackend(address _backend) external onlySuperAdmin {\r\n        authorisedBackends[_backend] = true;\r\n        emit BackendAuthorised(_backend);\r\n    }\r\n\r\n    /**\r\n     * @notice Revoke a backend wallet.\r\n     */\r\n    function revokeBackend(address _backend) external onlySuperAdmin {\r\n        authorisedBackends[_backend] = false;\r\n        emit BackendRevoked(_backend);\r\n    }\r\n\r\n    // ═══════════ LAYER 2- AUDIT LOG ═══════════\r\n\r\n    /**\r\n     * @notice Write an immutable audit entry after MySQL persistence.\r\n     * @param _baseId         Human-readable base ID (hashed on-chain).\r\n     * @param _category       Which asset category this action belongs to.\r\n     * @param _layer1RefId    Corresponding entry ID from the AssetLedger contract.\r\n     * @param _actionSummary  Readable summary, e.g. \"Removed 2 vehicles – deployed to border\".\r\n     * @param _performedBy    Username or wallet string of the actor.\r\n     * @param _dataHash       SHA-256 hash of the full MySQL record for integrity verification.\r\n     * @param _affectedAsset  Vehicle number or part code (for indexing).\r\n     */\r\n    function logAuditEntry(\r\n        string calldata   _baseId,\r\n        ActionCategory    _category,\r\n        uint256           _layer1RefId,\r\n        string calldata   _actionSummary,\r\n        string calldata   _performedBy,\r\n        bytes32           _dataHash,\r\n        string calldata   _affectedAsset\r\n    )\r\n        external onlyAuthorised\r\n        returns (uint256 entryId)\r\n    {\r\n        auditEntryCount++;\r\n        entryId = auditEntryCount;\r\n\r\n        bytes32 baseHash = keccak256(abi.encodePacked(_baseId));\r\n\r\n        auditEntries[entryId] = AuditEntry({\r\n            id:            entryId,\r\n            baseId:        baseHash,\r\n            category:      _category,\r\n            layer1RefId:   _layer1RefId,\r\n            actionSummary: _actionSummary,\r\n            performedBy:   _performedBy,\r\n            dataHash:      _dataHash,\r\n            timestamp:     block.timestamp\r\n        });\r\n\r\n        baseAuditTrail[baseHash].push(entryId);\r\n        assetAuditTrail[keccak256(abi.encodePacked(_affectedAsset))].push(entryId);\r\n\r\n        emit AuditEntryLogged(\r\n            entryId, baseHash, _category,\r\n            _layer1RefId, _dataHash, block.timestamp\r\n        );\r\n\r\n        return entryId;\r\n    }\r\n\r\n    // ═══════════ LAYER 2- ML PREDICTIONS ═══════════\r\n\r\n    /**\r\n     * @notice Store an ML prediction on-chain for verifiability.\r\n     * @param _baseId            Base this prediction concerns.\r\n     * @param _predictionType    E.g. \"DEMAND_FORECAST\", \"ANOMALY_DETECTION\", \"MAINTENANCE_ALERT\".\r\n     * @param _description       Human-readable model output.\r\n     * @param _severity          Alert severity level.\r\n     * @param _affectedAsset     Vehicle number or part code affected.\r\n     * @param _confidence        Confidence in basis points (0–10000).\r\n     * @param _recommendedAction Suggested action for the base admin.\r\n     */\r\n    function storeMLPrediction(\r\n        string calldata   _baseId,\r\n        string calldata   _predictionType,\r\n        string calldata   _description,\r\n        AlertSeverity     _severity,\r\n        string calldata   _affectedAsset,\r\n        uint256           _confidence,\r\n        string calldata   _recommendedAction\r\n    )\r\n        external onlyAuthorised\r\n        returns (uint256 predictionId)\r\n    {\r\n        require(_confidence <= 10000, \"Confidence must be 0-10000 basis points\");\r\n\r\n        mlPredictionCount++;\r\n        predictionId = mlPredictionCount;\r\n\r\n        bytes32 baseHash = keccak256(abi.encodePacked(_baseId));\r\n\r\n        mlPredictions[predictionId] = MLPrediction({\r\n            id:                predictionId,\r\n            baseId:            baseHash,\r\n            predictionType:    _predictionType,\r\n            description:       _description,\r\n            severity:          _severity,\r\n            affectedAsset:     _affectedAsset,\r\n            confidence:        _confidence,\r\n            recommendedAction: _recommendedAction,\r\n            timestamp:         block.timestamp\r\n        });\r\n\r\n        basePredictions[baseHash].push(predictionId);\r\n        assetPredictions[keccak256(abi.encodePacked(_affectedAsset))].push(predictionId);\r\n\r\n        emit MLPredictionStored(\r\n            predictionId, baseHash, _predictionType,\r\n            _severity, _affectedAsset, _confidence,\r\n            block.timestamp\r\n        );\r\n\r\n        return predictionId;\r\n    }\r\n\r\n    // ═══════════ READ FUNCTIONS ═══════════\r\n\r\n    /**\r\n     * @notice Get all audit entry IDs for a base.\r\n     */\r\n    function getBaseAuditTrail(string calldata _baseId)\r\n        external view\r\n        returns (uint256[] memory)\r\n    {\r\n        return baseAuditTrail[keccak256(abi.encodePacked(_baseId))];\r\n    }\r\n\r\n    /**\r\n     * @notice Get all ML prediction IDs for a base.\r\n     */\r\n    function getBasePredictions(string calldata _baseId)\r\n        external view\r\n        returns (uint256[] memory)\r\n    {\r\n        return basePredictions[keccak256(abi.encodePacked(_baseId))];\r\n    }\r\n\r\n    /**\r\n     * @notice Get all audit entry IDs for a specific asset (vehicle / part).\r\n     */\r\n    function getAssetAuditTrail(string calldata _asset)\r\n        external view\r\n        returns (uint256[] memory)\r\n    {\r\n        return assetAuditTrail[keccak256(abi.encodePacked(_asset))];\r\n    }\r\n\r\n    /**\r\n     * @notice Get all ML prediction IDs for a specific asset.\r\n     */\r\n    function getAssetPredictions(string calldata _asset)\r\n        external view\r\n        returns (uint256[] memory)\r\n    {\r\n        return assetPredictions[keccak256(abi.encodePacked(_asset))];\r\n    }\r\n\r\n    /**\r\n     * @notice Full details of an audit entry.\r\n     */\r\n    function getAuditEntryDetails(uint256 _id)\r\n        external view\r\n        returns (\r\n            bytes32        baseId,\r\n            ActionCategory category,\r\n            uint256        layer1RefId,\r\n            string memory  actionSummary,\r\n            string memory  performedBy,\r\n            bytes32        dataHash,\r\n            uint256        timestamp\r\n        )\r\n    {\r\n        AuditEntry storage e = auditEntries[_id];\r\n        return (\r\n            e.baseId, e.category, e.layer1RefId,\r\n            e.actionSummary, e.performedBy,\r\n            e.dataHash, e.timestamp\r\n        );\r\n    }\r\n\r\n    /**\r\n     * @notice Full details of an ML prediction.\r\n     */\r\n    function getMLPredictionDetails(uint256 _id)\r\n        external view\r\n        returns (\r\n            bytes32        baseId,\r\n            string memory  predictionType,\r\n            string memory  description,\r\n            AlertSeverity  severity,\r\n            string memory  affectedAsset,\r\n            uint256        confidence,\r\n            string memory  recommendedAction,\r\n            uint256        timestamp\r\n        )\r\n    {\r\n        MLPrediction storage p = mlPredictions[_id];\r\n        return (\r\n            p.baseId, p.predictionType, p.description,\r\n            p.severity, p.affectedAsset, p.confidence,\r\n            p.recommendedAction, p.timestamp\r\n        );\r\n    }\r\n\r\n    /**\r\n     * @notice Verify data integrity- compare stored hash with a provided hash.\r\n     */\r\n    function verifyDataIntegrity(uint256 _auditEntryId, bytes32 _expectedHash)\r\n        external view\r\n        returns (bool)\r\n    {\r\n        return auditEntries[_auditEntryId].dataHash == _expectedHash;\r\n    }\r\n\r\n    // ═══════════ UTILITY ═══════════\r\n\r\n    function getTotalRecords() external view returns (uint256 audits, uint256 predictions) {\r\n        return (auditEntryCount, mlPredictionCount);\r\n    }\r\n}\r\n",
  "sourcePath": "C:\\Users\\Samruddhi\\projects\\Military-Logistics-Optimization-and-Prediction-System-using-ML-and-Blockchain\\blockchain\\contracts\\AuditTrail.sol",
  "compiler": {
    "name": "solc",
    "version": "0.8.19+commit.7dd6d404.Emscripten.clang"
  },
  "schemaVersion": "3.4.16",
  "updatedAt": "2026-04-22T03:54:42.682Z",
  "networkType": "ethereum",
  "devdoc": {
    "kind": "dev",
    "methods": {
      "logAuditEntry(string,uint8,uint256,string,string,bytes32,string)": {
        "params": {
          "_actionSummary": "Readable summary, e.g. \"Removed 2 vehicles – deployed to border\".",
          "_affectedAsset": "Vehicle number or part code (for indexing).",
          "_baseId": "Human-readable base ID (hashed on-chain).",
          "_category": "Which asset category this action belongs to.",
          "_dataHash": "SHA-256 hash of the full MySQL record for integrity verification.",
          "_layer1RefId": "Corresponding entry ID from the AssetLedger contract.",
          "_performedBy": "Username or wallet string of the actor."
        }
      },
      "storeMLPrediction(string,string,string,uint8,string,uint256,string)": {
        "params": {
          "_affectedAsset": "Vehicle number or part code affected.",
          "_baseId": "Base this prediction concerns.",
          "_confidence": "Confidence in basis points (0–10000).",
          "_description": "Human-readable model output.",
          "_predictionType": "E.g. \"DEMAND_FORECAST\", \"ANOMALY_DETECTION\", \"MAINTENANCE_ALERT\".",
          "_recommendedAction": "Suggested action for the base admin.",
          "_severity": "Alert severity level."
        }
      }
    },
    "version": 1
  },
  "userdoc": {
    "kind": "user",
    "methods": {
      "authoriseBackend(address)": {
        "notice": "Authorise a backend wallet (the Django server's account) to write entries."
      },
      "getAssetAuditTrail(string)": {
        "notice": "Get all audit entry IDs for a specific asset (vehicle / part)."
      },
      "getAssetPredictions(string)": {
        "notice": "Get all ML prediction IDs for a specific asset."
      },
      "getAuditEntryDetails(uint256)": {
        "notice": "Full details of an audit entry."
      },
      "getBaseAuditTrail(string)": {
        "notice": "Get all audit entry IDs for a base."
      },
      "getBasePredictions(string)": {
        "notice": "Get all ML prediction IDs for a base."
      },
      "getMLPredictionDetails(uint256)": {
        "notice": "Full details of an ML prediction."
      },
      "logAuditEntry(string,uint8,uint256,string,string,bytes32,string)": {
        "notice": "Write an immutable audit entry after MySQL persistence."
      },
      "revokeBackend(address)": {
        "notice": "Revoke a backend wallet."
      },
      "storeMLPrediction(string,string,string,uint8,string,uint256,string)": {
        "notice": "Store an ML prediction on-chain for verifiability."
      },
      "verifyDataIntegrity(uint256,bytes32)": {
        "notice": "Verify data integrity- compare stored hash with a provided hash."
      }
    },
    "notice": "============================================================  LAYER 2 -  AUDIT TRAIL  (Immutable Audit Log & ML Predictions) ============================================================ After data flows through MySQL and the ML pipeline, the results are written back to this contract so that:   1. Every action has a permanent, tamper-proof audit entry.   2. ML predictions (alerts, anomalies, demand forecasts) are      stored on-chain for verifiability. Flow:  MySQL  ──►  ML Engine  ──►  This contract  ──►  Dashboard The Django backend calls these functions via Web3.py after ML processing is complete.",
    "version": 1
  }
}